:020000040000FA
:1000000010020020C100000055040000210400007F
:10001000FFFFFFFFFFFFFFFFFFFFFFFFFFFFFFFFF0
:10002000FFFFFFFFFFFFFFFFFFFFFFFF6D0400006B
:10003000FFFFFFFFFFFFFFFF570400006F040000FA
:1000400035010000350100003501000035010000D8
:1000500035010000350100003501000035010000C8
:1000600035010000FFFFFFFF3501000035010000F2
:10007000350100003501000035010000FFFFFFFFE2
:10008000FFFFFFFF350100003501000035010000D2
:100090003501000035010000350100003501000088
:1000A0003501000035010000350100003501000078
:1000B0003501000035010000350100003501000068
:1000C0001D4880471D4880471D4800471D4801695D
:1000D000002908D14169002905D18169002902D18F
:1000E000C169002909D01848C1680901090D002912
:1000F0000ED005290CD006290AD0BFF34F8F134824
:100100001349016013491248C860BFF34F8FFEE7DF
:100110000E4801680E48884200D070470E480F49CB
:1001200001600A480E4901607047FEE7FEE7FEE7FE
:10013000FEE7FEE7FEE70000CD00000071040000CE
:100140006501000000030840800108400000002015
:100150000400FA0500ED00E0008108400100000005
:10016000000000000348854600F01CF800480047E6
:10017000A90700001002002030B50B460146002000
:100180002022012409E00D46D5409D4205D31D469D
:100190009540491B2546954040191546521E002D95
:1001A000F1DC30BD064C0125064E05E0E36807CCC6
:1001B0002B430C3C98471034B442F7D3FFF7D6FFDB
:1001C0007008000090080000F0B596460A461349F2
:1001D000C000461800230025FF2098402C461042FE
:1001E00016D00020012199408C461146C140674637
:1001F000394206D087000F21B9400D437146B940FE
:100200000C43401C0828F0D33068A84320433060DA
:100210000833361D082BDEDDF0BD00002020024033
:1002200070B5184D0446686B4607760F00F02EF83F
:1002300015492060330000F087FA081405070714F9
:10024000140E1114606000E06160296A606805297D
:1002500009D3400908E00120C003F3E77D20000234
:10026000F0E70020EEE7C840A060A96A4903490F03
:10027000072902D0C840E06070BD0321FFF77CFF72
:10028000F9E700000080084000127A000C49086875
:10029000C869C20F4868400AC007C00F0ED009489D
:1002A000002A0BD18869C00D0007000F00D1102073
:1002B0008969044A4902890F5043C84070470000C9
:1002C0000080084000127A001FB541090A4A8900DF
:1002D0008A1800212E2800D10221C006C00E126803
:1002E000032383401A40C24054186846FFF798FF22
:1002F000029804B0E04010BD38800840F0B5084FC7
:100300007C6AFD6A3E6B84438D439643002B02D08A
:1003100004430D4316437C62FD623E63F0BD000062
:1003200000800840002A026801D00A4300E08A43A6
:1003300002607047F0B5002425462346CE0706D05C
:100340005E001746B7403C430327B7403D4349088A
:100350005B1C102BF2D34169A943416141692143E0
:100360004161F0BD002A08D0012A09D082688A4381
:100370008260C2688A43C260704782680A43F7E7B6
:10038000C2680A43C26082688A4382607047000084
:10039000F8B5054613481349465D680010310C5AFC
:1003A00008460D38475DB0000C31085800903046C3
:1003B00000F09CF93A4621463046FFF705FF2846F3
:1003C00000F012F8214602220098FFF7CBFF2146E9
:1003D00001220098FFF7AEFF214601220098FFF7A7
:1003E000A1FFF8BD2C080000044A4100515A103A00
:1003F000105C80001C321058416270473C080000BD
:100400000649095C8A0005491C3189580A6A034B70
:1004100040001033185A42400A6270472C0800000E
:10042000024801680029FCD0704700000400002049
:1004300010B5064C06492068401C2060884204D153
:100440000020FFF7DDFF0020206010BD000000202D
:10045000400D0300704770470349C2B20A600A6941
:10046000D205FCD57047000000000440704770477B
:10047000F0B539491020C860384A01201060384969
:10048000086B4025284308633648002344158668D6
:10049000272EFCD100E044604668B605FBD500E09D
:1004A00043604668B605FBD41360486A0322920293
:1004B0009043486248680122D2021043486088682D
:1004C000C008C007FBD04868C008C000C01C486016
:1004D000486B4007400F0328FAD1234A1068C00830
:1004E000C000401C10600B624868A0434860086868
:1004F0009615304308604868171538434860886887
:100500008008C007FBD0086BA84308630868B043A5
:1005100008600320000688614868204348608868B6
:100520004008C007FBD01068C008C000801C1060E5
:100530000B624868C008C000401C4860486B400718
:10054000400F0128FAD1106810210843106010688C
:10055000090208431060F0BD008108400083084094
:100560000080084000A106400002084000690840E1
:1005700000D001207047000070B504460D46C888C1
:100580008988626808432989184B1A401143084337
:1005900069890843606001208007844206D11820E1
:1005A000FFF792FE2968FFF7E7FD6062104884427A
:1005B00006D11A20FFF788FE2968FFF7DDFD60628B
:1005C0000C48844206D11C20FFF77EFE2968FFF705
:1005D000D3FD60620848844206D11E20FFF774FEF6
:1005E0002968FFF7C9FD606270BD0000FCE0FFFFF5
:1005F000000004400010004000100440006880B279
:1006000070470160704710238B404168002A01D079
:10061000194300E099434160704700003EB5002453
:10062000012021210004490201232246FFF766FE32
:10063000002220211348FFF795FE062210210020FA
:10064000FFF7C2FD062220210020FFF7BDFDE120BB
:1006500040020090FF200194029401306946888096
:10066000CC800C814C81084C2046FFF785FF01228D
:1006700000212046FFF7C7FF012211462046FFF761
:10068000C2FF3EBD00000B400000044010B5064C08
:1006900020212046FFF76AFF012804D12046FFF7FA
:1006A000ADFF00F003F810BD0000044070B5FF245A
:1006B000064D0646013421462846FFF757FF00281D
:1006C000F9D031462846FFF79CFF70BD000004407A
:1006D00070B5054E4A250024305DFFF7E7FF641C26
:1006E000AC42F9D370BD0000E00700001CB5002249
:1006F000009201216B460192195418784904C007F1
:10070000C00B88435978C907890B08430121890424
:1007100088439978C907490B08430121C9048843D4
:10072000D9780123C907090B084301218903FFF781
:10073000E5FD1CBD10B5024A024900F021F810BDCC
:100740009F0700000800002030B47446641E25781E
:10075000641CAB4200D21D46635D5B00E31830BCF5
:10076000184702E008C8121F08C1002AFAD17047D2
:100770007047002001E001C1121F002AFBD1704721
:10078000F8B516460F460446002503E03946B04743
:10079000641C6D1C20780028F8D12846F8BD10B5DF
:1007A000FFF75AFE10BD00000020FFF7F1FDFFF734
:1007B00035FFFFF78DFFFFF769FF03A0FFF7BAFFD3
:1007C000FFF736FEF7E70000304130373130313186
:1007D00031313131313131313131313400000000CA
:1007E00048656C6C6F2C20746869732069732055A0
:1007F000534152542054782F527820506F6C6C69BA
:100800006E67206578616D706C652E20506C656137
:10081000736520656E7465722063686172616374CC
:100820006572732E2E2E2E2E0D0A0000020202017A
:1008300001010103030101010C01020000400080DD
:10084000020000100200040000000B4000200B40DA
:1008500000400B4000600B40000000000000000062
:100860000000044000001000060000002000060008
:1008700090080000000000200C000000620700004B
:100880009C0800000C000020040200007207000019
:0C0890000000000000000000000000005C
:04000005000000C136
:00000001FF
