:020000040000FA
:10000000D8160020C1000000D10E00000D0E000027
:10001000FFFFFFFFFFFFFFFFFFFFFFFFFFFFFFFFF0
:10002000FFFFFFFFFFFFFFFFFFFFFFFF0D0F0000C0
:10003000FFFFFFFFFFFFFFFFF50E0000E90F0000CD
:1000400035010000350100003501000035010000D8
:1000500035010000350100003501000035010000C8
:1000600035010000FFFFFFFF3501000035010000F2
:10007000350100003501000035010000FFFFFFFFE2
:10008000FFFFFFFF350100003501000035010000D2
:100090003501000035010000350100003501000088
:1000A000E9100000350100003501000035010000B5
:1000B0003501000035010000350100003501000068
:1000C0001D4880471D4880471D4800471D4801695D
:1000D000002908D14169002905D18169002902D18F
:1000E000C169002909D01848C1680901090D002912
:1000F0000ED005290CD006290AD0BFF34F8F134824
:100100001349016013491248C860BFF34F8FFEE7DF
:100110000E4801680E48884200D070470E480F49CB
:1001200001600A480E4901607047FEE7FEE7FEE7FE
:10013000FEE7FEE7FEE70000CD000000ED0F000047
:100140006501000000030840800108400000002015
:100150000400FA0500ED00E0008108400100000005
:10016000000000000348854600F086F8004800477C
:10017000CD1F0000D816002030B50B4601460020E8
:100180002022012409E00D46D5409D4205D31D469D
:100190009540491B2546954040191546521E002D95
:1001A000F1DC30BD70B500242546002801DA0124B9
:1001B0004042002901DA01254942FFF7DDFFAC4248
:1001C00000D04042002C00D0494270BDD2B201E0C4
:1001D0000270401C491EFBD270470022F6E710B5A2
:1001E00013460A4604461946FFF7F0FF204610BDA5
:1001F000421E5378521C002BFBD10B781370491C04
:10020000521C002BF9D17047421C0178401C002978
:10021000FBD1801A7047F0B51FB40646002082B0AB
:1002200005464024019100901BE0019922460F46AB
:10023000304600F043F8049A059B801A994110D388
:1002400010461946224600F029F8361A8F410197C8
:10025000224601200021009F00F020F838184D416F
:1002600000902046641E0028DFDC019B0098294690
:10027000324607B0F0BD0000064C0125064E05E0F1
:10028000E36807CC2B430C3C98471034B442F7D3B7
:10029000FFF76CFF482900006829000010B5202AEC
:1002A00004DB0146203A9140002010BD91402023FC
:1002B0009C1A0346E3401943904010BD10B5202A14
:1002C00004DB0846203AD040002110BD0B46D34045
:1002D000D0402024A21A91400843194610BD0000C6
:1002E000FFB5FFB0FFB081B0FFA87D21856A446AE9
:1002F0001E46C90004A8FFF770FF444FF86B0028A2
:1003000005D143494348FFF768FF0120F86342A144
:1003100004A801F0C9F804A93E48FFF769FFFFA847
:10032000C06A00213C2814DB0020FFAAD062396398
:10033000F86A6D1C401CF8623C2D0ADBF962B86A51
:10034000641C401C0D46B862182C0ADB0024BD62F8
:1003500003E0182C05DB0C46B962786A401C761C59
:100360007862642000F000FC2CA104A8FF9A01F040
:100370009BF804A92748FFF73BFFFFAAD06A039028
:100380000096029501949368526826A104A801F092
:100390008BF804A91F48FFF72BFFFFAA1C4C136B17
:1003A00029A2214604A801F065F804A91948FFF71D
:1003B0001FFFFFAA536B24A2214604A801F05AF89C
:1003C00004A91448FFF714FFFFAA926B20A104A808
:1003D00001F06AF804A90F48FFF70AFF386C401EC5
:1003E000386409D10CA104A801F05EF804A90948F9
:1003F000FFF7FEFE01203864386B401C3863054867
:10040000FFF702FF7FB07FB005B0F0BD0400002011
:1004100088130000740000202100000025303264A1
:100420002C0000003230253032642D253032642D0E
:100430002530326420253032643A253032643A2542
:100440003032642C00000000253033642C000000A2
:100450002530326400000000FFB5FFB0FFB087B068
:10046000FFA83C30B0C87D21C9000AA8FFF7B5FE3F
:100470009C4EF06B00281DD09BA10AA801F014F837
:100480000AA99B48FFF7B4FE00213C2F1ADB316319
:10049000F06A0027401C6D1CF0623C2D12DBF162FB
:1004A000B06A641C401C0D46B062182C11DB00249D
:1004B000B5620BE08F498E48FFF78FFE01208EA1B9
:1004C000F063DAE7182C04DB0C46B162706A401C5A
:1004D0007062642000F048FBFFA8806981493030D9
:1004E000891C0870FFA80A21C069FFF75BFE02465D
:1004F0007C483032001D027030314170FFA80A2163
:10050000006AFFF74FFE024676483032801D0270C7
:1005100030314170801F0A21406AFFF743FE0246D6
:100520007048303208300270303141700A21204664
:10053000FFF738FE02466B4830320A300270303125
:1005400041700A212846FFF72DFE0246654E3032E3
:100550000C363270303171700A213846FFF722FEB6
:1005600002463032B71C3A7030317970FFA86421EE
:10057000806CFFF717FEB41D3030A070FFA80A2171
:10058000806CFFF70FFE0D460A21FFF70BFE30319E
:100590006170294630312170FFA86421C06CFFF7DB
:1005A00001FEE51C3030A870FFA80A21C06CFFF7DF
:1005B000F9FD00910A21FFF7F5FD303169700099CE
:1005C000FFA8303129700A21006DFFF7EBFD0246CC
:1005D0003032A01E42703031017049A10AA800F0EB
:1005E00063FF0AA94248FFF703FE2046103802784D
:1005F00044A10AA800F058FF0AA93D48FFF7F8FDFA
:1006000048A10AA800F050FF0AA93948FFF7F0FDF9
:10061000717830787B783A7806AE0FC6381F42780A
:10062000B91FBB1F007849781B78049020460293BD
:10063000059203910C384178007800900191204692
:100640000E384378027840490AA800F02DFF0AA925
:100650002748FFF7CDFD2178607801910090A378BD
:10066000244C3AA221460AA800F004FF0AA9204817
:10067000FFF7BEFD2978687801910090AB783EA223
:1006800021460AA800F0F6FE0AA91948FFF7B0FDB6
:10069000681F0378427843A10AA800F005FF0AA961
:1006A0001348FFF7A5FD0F48016C491E01640ED1E8
:1006B0000AAC47A1204600F0F7FE21460C48FFF7A0
:1006C00097FD084901200864642000F04DFA0549AF
:1006D000086B401C08630648FFF796FD7FB07FB0AB
:1006E0000BB0F0BD040000203263306132300000F6
:1006F0007400002088130000356230613230000041
:1007000037620000306132303232343934343232C0
:1007100033613230323225303278323232633061F6
:10072000000000003230323234343631373436355E
:10073000353436393664363532323361323032321E
:1007400033323330000000000429000032303232EE
:1007500035383566363137383639373332323361EA
:1007600032303232253032782530327825303278C6
:100770003232326330610000323032323539356620
:1007800036313738363937333232336132303232FC
:100790002530327825303278253032783232326363
:1007A00030610000323032323561356636313738EB
:1007B00036393733323233613230323225303278A3
:1007C0002530327832323061323037640000000038
:1007D0003061356400000000F0B596460A461349C2
:1007E000C000461800230025FF2098402C461042E8
:1007F00016D00020012199408C461146C140674621
:10080000394206D087000F21B9400D437146B940E7
:100810000C43401C0828F0D33068A84320433060C4
:100820000833361D082BDEDDF0BD0000202002401D
:1008300070B505460FA000F00DFE134C012060635B
:10084000A169606CFFF7C9FC0020A0610FA000F057
:1008500001FE00F02DFB19A000F0FCFD00F028FBCC
:10086000294620A000F0F6FD264927A000F0F2FD61
:1008700070BD000041542B434D51444953434F4EEA
:100880003D300D0A000000000400002041542B43BD
:100890004D514E45573D2236312E35382E323438A3
:1008A0002E313038222C2231383833222C3330305C
:1008B00030302C313030300D0A00000041542B43D1
:1008C0004D51434F4E3D302C332C22636C69656E85
:1008D000745F4A65727279222C31302C312C300DC4
:1008E0000A00000041542B434D515055423D302CDD
:1008F000222F746573742F222C312C302C302C2530
:10090000642C000074000020222573220D0A0000D0
:1009100010B511A000F09EFD124C204600F024F905
:1009200011A000F097FD204600F01EF911A000F084
:1009300091FD00F0BDFA12A000F08CFD204600F001
:1009400013F912A000F086FD00F0B2FA12A000F038
:1009500081FD00F063FA10BD41542B474D520D0A42
:1009600000000000DC05000041542B43545A523D66
:10097000310D0A0041542B43545A553D310D0A00A4
:1009800041542B4352455345540D0A0041542B43C7
:10099000475245473F0D0A0041542B43434C4B3FC0
:1009A0000D0A000070B5184D0446686B4607760FB7
:1009B00000F02EF815492060330000F089FD08147E
:1009C00005070714140E1114606000E06160296AC5
:1009D0006068052909D3400908E00120C003F3E756
:1009E0007D200002F0E70020EEE7C840A060A96A81
:1009F0004903490F072902D0C840E06070BD0321B8
:100A0000FFF7BAFBF9E700000080084000127A0007
:100A10000C490868C869C20F4868400AC007C00F7F
:100A20000ED00948002A0BD18869C00D0007000FBD
:100A300000D110208969044A4902890F5043C840F7
:100A4000704700000080084000127A001FB541097D
:100A50000A4A89008A1800212E2800D10221C006E6
:100A6000C00E1268032383401A40C24054186846DF
:100A7000FFF798FF029804B0E04010BD38800840AE
:100A8000F0B5084F7C6AFD6A3E6B84438D43964304
:100A9000002B02D004430D4316437C62FD623E638B
:100AA000F0BD0000008008401FB50024092002901E
:100AB000009401940223224606210394802000F032
:100AC00091F8322001F0E2FC0648022300780290FF
:100AD00000940194002206210394802000F082F803
:100AE0001FBD00005A0000201FB5002409200290FD
:100AF000009401940223224606210394802000F0F2
:100B0000ABF8322001F016FD06480223007802906F
:100B100000940194002206210394802000F09CF8A8
:100B20001FBD0000660000201FB5002112200091AB
:100B300001910A460391029001230621802000F0D2
:100B400051F81FBD1FB500211220009101910A46E6
:100B50000391029001230621802000F07DF81FBD43
:100B6000401EFDD270470000044A03E00021491CEA
:100B70009142FCD3401EF9D270470000E02E0000E5
:100B800003E00021491C0B29FCD3401EF9D2704719
:100B9000002A026801D00A4300E08A4302607047DD
:100BA000002A426801D00A4300E08A43426070474D
:100BB000002A08D0012A09D082688A438260C2686C
:100BC0008A43C260704782680A43F7E7C2680A43F3
:100BD000C26082688A4382607047C069084000D062
:100BE00001207047FFB585B01A4F96463A789C466B
:100BF0000E9B0F99109D1198009304920191039000
:100C0000002430260295634672460699059801F045
:100C10006DFDE00713D000233A783979304601F0B2
:100C200099F93879641C3018C6B2E4B20420FFF791
:100C300097FF3879854204D9281AC5B2E9E74023DD
:100C4000EAE740233A780021302001F089FA09B020
:100C5000F0BD000058000020FFB585B01A4F964641
:100C60003A789C460E9B0F99109D11980093049220
:100C7000019103900024302602956346724606993E
:100C8000059801F071FDE00713D000233A78397917
:100C9000304601F07DF93879641C3018C6B2E4B2F0
:100CA0000420FFF75DFF3879854204D9281AC5B2C0
:100CB000E9E74023EAE740233A780021302001F0B9
:100CC0006DFA09B0F0BD000064000020F8B5104DC9
:100CD000104E114F28783070002420463030C0B2BA
:100CE000002101F0C7FD641C402CF6DB00233A789C
:100CF0004021302001F04CF96D2001F01BFC074829
:100D00000078012801D00228E4D1401EF8BD00007F
:100D100069000020650000206400002066000020BB
:100D2000F8B5124E124F134D30783870002420461B
:100D30003030C0B2002101F055FD641C402CF6DBC0
:100D40000D48002302784021302001F003F93420BF
:100D500001F09CFB2C78362001F098FB2878002CC1
:100D6000E2D00028E0D02046F8BD00005D00002061
:100D7000590000205A00002058000020F8B5114EFC
:100D8000114F124D30783870002420463030C0B2F8
:100D9000002101F027FD641C402CF6DB0C480023E9
:100DA00002784021302001F0D5F8342001F06EFBAC
:100DB0002C78362001F06AFB2878002CE2D000283D
:100DC000E0D0F8BD5D000020590000205A0000204E
:100DD000580000201FB500210820009101910A460B
:100DE00003910290012306218020FFF7FBFE1FBD27
:100DF0001FB500210820009101910A46039102903D
:100E0000012306218020FFF727FF1FBD024801684C
:100E10000029FCD0704700005400002070B5002469
:100E20002048FFF7A1FE214D00201F4A696C03E016
:100E30000B5C1355401C641CAB699842F8D3907C42
:100E40000A243038D37C604330381818E861507D6C
:100E5000937D30386043303818182862107E537EF6
:100E600030386043303818186862D07E137F3038CD
:100E7000604328381818A862907FD37F30386043C9
:100E8000303818182032E862507893783038604350
:100E900030381818286300210348FFF79EF9002016
:100EA000A86170BDB80B00007C1400200400002075
:100EB00010B5FF20F530FFF757FE044CA169606CB8
:100EC000FFF78BF90020A06110BD00000400002096
:100ED000704700000548064902E08A68272A03D0C7
:100EE000401EFAD1012070470020704700366E0185
:100EF00000A10640704700000349C2B20A600A69B7
:100F0000D205FCD570470000000004407047000087
:100F100000B50C4A85B0002110705170019102910A
:100F2000039104910B46024600910521002001F037
:100F3000DDFB002240231146302001F00BF805B004
:100F400000BD00005800002000B50C4A85B000210B
:100F50001070517001910291039104910B46024669
:100F600000910521002001F0FFFB002240231146E3
:100F7000302001F00DF805B000BD00006400002035
:100F800010B50B4C86B0217800200491019002909E
:100F90000390034601220090092101F0A7FB4023A2
:100FA00022780021302000F0D5FF06B010BD0000EF
:100FB0005800002010B50B4C86B021780020049119
:100FC000019002900390034601220090092101F054
:100FD000CBFB402322780021302000F0D9FF06B05F
:100FE00010BD00006400002070470000F0B53949D2
:100FF0001020C860384A012010603849086B40252D
:10100000284308633648002344158668272EFCD100
:1010100000E044604668B605FBD500E043604668E2
:10102000B605FBD41360486A0322920290434862DB
:1010300048680122D202104348608868C008C0078F
:10104000FBD04868C008C000C01C4860486B40071F
:10105000400F0328FAD1234A1068C008C000401C82
:1010600010600B624868A0434860086896153043DA
:101070000860486817153843486088688008C007CA
:10108000FBD0086BA84308630868B04308600320DE
:101090000006886148682043486088684008C007A7
:1010A000FBD01068C008C000801C10600B6248684C
:1010B000C008C000401C4860486B4007400F012832
:1010C000FAD1106810210843106010680902084323
:1010D0001060F0BD00810840008308400080084097
:1010E00000A106400002084070B52A4D2021284684
:1010F00000F05CF8002813D0284600F0ABF8264C2E
:1011000002462168254800684318491C21601A706E
:101110002168802904D12168FFF75FF80020206052
:101120000221284600F047F800281CD080212846DC
:1011300000F03CF8002816D0194C2068002812D086
:10114000184802681178521C0260284600F085F8A1
:101150002168491E21602068002804D10022022154
:10116000284600F06FF80421284600F024F80028F3
:101170000ED0FF210131284600F018F8002807D0D2
:1011800000220421284600F05DF80749012008608C
:1011900070BD0000000004401C000020480000203A
:1011A00000000020500000204C0000200069084092
:1011B00000D001207047C068084000D0012070476F
:1011C00070B504460D46C888898862680843298935
:1011D000184B1A4011430843698908436060012095
:1011E0008007844206D11820FFF730FC2968FEF7FB
:1011F000C3FF60621048844206D11A20FFF726FC24
:101200002968FEF7B9FF60620C48844206D11C20B1
:10121000FFF71CFC2968FEF7AFFF606208488442B4
:1012200006D11E20FFF712FC2968FEF7A5FF6062B9
:1012300070BD0000FCE0FFFF000004400010004013
:1012400000100440002AC26801D00A4300E08A432B
:10125000C2607047006880B2704701607047102319
:101260008B404168002A01D0194300E09943416056
:101270007047000070B5234C0122D1032046FFF7D0
:1012800087FC012291032046FFF782FC0122D10254
:101290002046FFF77DFC012291022046FFF778FCF3
:1012A000194C012202212046FFF772FC0122042181
:1012B0002046FFF76DFC012208212046FFF768FC5D
:1012C00000F008FC114D08202870FFF783FD37203F
:1012D00001F0DCF80A20FFF743FC0D4C2078287061
:1012E0000120FFF715FEFFF71FFCFFF7DDFB3220A3
:1012F00001F0CCF807492078087000F083FBFFF775
:101300003FFE70BD00000B4000600B405C00002001
:101310005A0000200400002070B5244C0122D102A4
:101320002046FFF735FC012291022046FFF730FCF2
:101330001F4D0122D1032846FFF72AFC0122114646
:101340001C48FFF725FC0122160231462846FFF70C
:101350001FFC012231462046FFF71AFC01225102F0
:101360002046FFF715FC00F01DFC134C08202070F0
:10137000FFF73EFD372001F0DDF80A20FFF7F0FB14
:101380000E4D287820700220FFF7DEFDFFF7DAFB14
:10139000FFF7AAFB322001F0CDF809492878487000
:1013A00000F048FBFFF706FE70BD000000400B4058
:1013B00000200B4000600B40680000206600002009
:1013C000040000203EB50F2021210024402200040B
:1013D00049020123FFF754FBFFF77CFD002800D0F2
:1013E000FEE7002220211848FFF7E2FB0622102129
:1013F0000020FFF7F1F9062220210020FFF7ECF989
:10140000E12040020090FF200194029401306946DF
:101410008880CC800C814C810C4C2046FFF7D0FE9C
:101420000B4AA1011160012211462046FFF70AFF75
:10143000012200212046FFF712FF0122114620461B
:10144000FFF70DFF3EBD000000000B400000044010
:1014500000E100E00FB410B503A9044B044A029860
:1014600000F052F810BC08BC04B01847FD19000089
:10147000700000200FB41CB50246002007AC002904
:101480000BD0491E01910092064B6A4621460698F0
:1014900000F03AF8009A002111701CBC08BC04B09E
:1014A000184700007D1900000FB410B504A9074BC0
:1014B00002AA039800F028F8044602A9002000F0D0
:1014C00068FA204610BC08BC04B018479319000005
:1014D00030B47446641E2578641CAB4200D21D46AD
:1014E000635D5B00E31830BC184702E008C8121FB8
:1014F00008C1002AFAD170477047002001E001C1FD
:10150000121F002AFBD17047FFB591B00F46054668
:10151000002606E025280AD0149A139990476D1CDE
:10152000761C28780028F5D1304615B0F0BD00248F
:1015300000940121F34A029400E004436D1C2B78CF
:101540000846203B98401042F7D128782A280ED030
:10155000022128780246303A092A15D8009A0A232F
:101560005A43303A80180C436D1C0090F1E701CFCC
:101570000090002805DA012040030443009840420F
:101580000090022004436D1C28782E2815D10420D9
:10159000044368786D1C2A280AD101CF6D1C029083
:1015A0000BE002990A225143303940186D1C029019
:1015B0002878014630390929F3D928786C2810D0C9
:1015C00006DC4C281AD068280ED06A2817D104E00F
:1015D000742813D07A2812D110E00120400504436A
:1015E0000CE00121090501E0032109050C4369789C
:1015F000814203D10120000524186D1C6D1C287840
:1016000003906E281ED00CDC632831D004DC002847
:101610008AD0582811D1B2E064287BD069280CD137
:1016200078E073282DD004DC6F2870D0702804D1A6
:10163000A7E075286CD078286BD0149A139990473E
:10164000761C62E06002400F022807D003280AD00F
:10165000042838680AD006603F1D56E03868F11744
:1016600006604160F8E738680680F5E70670F3E742
:101670003878694608740020487404A80390012053
:1016800003E0386803900020C0433F1D61070FD579
:10169000002101E00199491C029A0191914213DA5B
:1016A0008142F7DB019A0399895C0029F2D10BE0B2
:1016B000002101E00199491C01918142FADB019A64
:1016C0000399895C0029F5D101990098139A401A71
:1016D00000902146149B00F03BF9019980194618AF
:1016E00007E0039803990078491C0391149A139911
:1016F00090470198401E0190401CF2D12146149B56
:10170000139A009800F014F986196D1C09E741E05E
:1017100033E034E00A200021049005916002410F7B
:10172000022905D001CFC2179446032905D007E04E
:10173000FF1DFF08FF0003CF06E000B2C21794466A
:10174000042902D140B2C1178C460022614694455B
:1017500006DA0A460021404291418C462D2102E0E2
:10176000210504D52B216A461176012103E0E1070A
:1017700001D02021F7E7019154E00A200BE010206E
:1017800009E0102004900021042004430820059162
:10179000029003E008200021059104906002410FAF
:1017A000022905D001CF00229446032906D006E085
:1017B000FF1DFF08FF0003CF8C4603E080B2042921
:1017C00000D1C0B20021019121072BD503997029C6
:1017D00006D0049A1021059B4A401A4305D00EE01A
:1017E00040216A461176012108E06146014306D096
:1017F00030216A4611760399517602210191049AAB
:101800000821059B4A401A430CD16146014301D18E
:10181000610707D530216A461176012101910299AD
:10182000491E02910399582904D037A103910FA9A9
:101830000F910DE039A1F9E76146059B049AFEF787
:10184000EAFC039B8C469B5C0F9A521E0F9213700E
:1018500061460143F0D10F9807A9081A2030039080
:10186000600704D5012000048443029801E00120B0
:1018700002900399884201DD401A00E000204118DF
:101880000290019809180098401A0090E00306D4CD
:101890002146149B139A009800F05AF886190020EC
:1018A000049008E006A9085C149A139990470498DC
:1018B000401C761C049001998842F3DBE0030CD5B0
:1018C0002146149B139A009800F042F8861904E010
:1018D000149A302013999047761C0299481E029062
:1018E0000029F5DC08E00F980F990078491C0F914A
:1018F000149A13999047761C0399481E0390002967
:10190000F1DCFBE60928010030313233343536375B
:10191000383961626364656600000000303132333B
:1019200034353637383941424344454600000000DB
:10193000F8B5044600251E461746880404D405E081
:1019400039462020B0476D1C641EF9D52846F8BDE5
:10195000FFB50446002581B01E46C80301D53027D7
:1019600000E02027880404D505E038460399B047F5
:101970006D1C641EF9D5284605B0F0BD4A68002AE2
:1019800006D00A68531C0B6010704868401E4860FF
:1019900070470A68531C0B601070704770B506469C
:1019A0000020094C7D25ED00A060304600F05AF87B
:1019B000A178480705D5A068A84204D2401CA060C1
:1019C000F3E7C807F1D070BD5800002070B5064697
:1019D0000020094C7D25ED00A060304600F05EF847
:1019E000A178480705D5A068A84204D2401CA06091
:1019F000F3E7C807F1D070BD6400002010B5FFF711
:101A00007BFA10BD70B50A4D3024204600F03EFD33
:101A1000A878072802D02018C4B2F6E7A41CE0B2C8
:101A200000F034FDA8784006400E687170BD0000DB
:101A30005800002070B50A4D3024204600F07AFD91
:101A4000A878072802D02018C4B2F6E7A41CE0B298
:101A500000F070FDA8784006400E687170BD00006F
:101A60006400002010B50446FF210D2000F0BAFEEE
:101A70002146002000F0B6FE074C0D2000F006FDC8
:101A8000A078C007F9D0FF210D2000F0ABFE0320A5
:101A900000F0FCFC10BD00005800002010B504460A
:101AA000FF210D2000F0E6FE2146002000F0E2FEBE
:101AB000074C0D2000F03EFDA078C007F9D0FF21B3
:101AC0000D2000F0D7FE032000F034FD10BD000013
:101AD0006400002010B500F0B5F9AE210F2000F031
:101AE00081FE0F2000F0D2FC0821052000F07AFED4
:101AF000052000F0CBFC0420FFF742F80021052070
:101B000000F070FE052000F0C1FC6121062000F00D
:101B100069FE062000F0BAFC214CFF210D2000F0E8
:101B200061FE0D2000F0B2FCA0784028F5D0C0B2D4
:101B3000802826D0E0210E2000F054FEEE210F2058
:101B400000F050FE2121052000F04CFE0020E07046
:101B50005021032000F046FE0021042000F042FE48
:101B60000121002000F03EFE0420FFF709F8FF21CC
:101B70000D2000F037FE00F039F9FA20FFF700F8E9
:101B800010BDE0210E2000F02DFEAE210F2000F050
:101B900029FE0521084600F025FE2020D7E7000099
:101BA0005800002010B500F08BF9AE210F2000F096
:101BB00061FE0F2000F0BEFC0821052000F05AFE57
:101BC000052000F0B7FC0420FEF7DAFF0021052015
:101BD00000F050FE052000F0ADFC6121062000F071
:101BE00049FE062000F0A6FC214CFF210D2000F04C
:101BF00041FE0D2000F09EFCA0784028F5D0C0B238
:101C0000802826D0E0210E2000F034FEEE210F20A7
:101C100000F030FE2121052000F02CFE0020E070B5
:101C20005021032000F026FE0021042000F022FEB7
:101C30000121002000F01EFE0420FEF7A1FFFF217D
:101C40000D2000F017FE00F0E7F8FA20FEF798FFED
:101C500010BDE0210E2000F00DFEAE210F2000F09F
:101C600009FE0521084600F005FE2020D7E7000008
:101C70006400002010B5C20980232B49002A0A6A9B
:101C800001D01A4300E09A430A624006400E430620
:101C90004022002B0B6A01DA134300E093430B62EE
:101CA0008006800E83062022002B0B6A01DA134384
:101CB00000E093430B62C006C00EC2061023002A48
:101CC0000A6A01DA1A4300E09A430A620007000F29
:101CD00002070823002A0A6A01DA1A4300E09A433D
:101CE0000A624007400F43070422002B0B6A01DA07
:101CF000134300E093430B628007800F82070223A7
:101D0000002A0A6A01DA1A4300E09A430A62C0070D
:101D1000086A02D00122104301E040084000086236
:101D20000520FEF71DFF10BD00200B4010B5C209B5
:101D300080232C49002A0A6A01D01A4300E09A4302
:101D40000A624006400E42064023002A0A6A01DA6F
:101D50001A4300E09A430A628106890E8B0620220C
:101D60002148002B036A01DA134300E09343036226
:101D7000C906C90ECA061023002A026A01DA1A43EC
:101D800000E09A4302620907090F0A070823002AA4
:101D9000026A01DA1A4300E09A4302624907490FD6
:101DA0004A070423002A026A01DA1A4300E09A4330
:101DB00002628907890F8B070222002B036A01DA6E
:101DC000134300E093430362C907016A02D0012272
:101DD000114301E04908490001620520FEF7C0FEF9
:101DE00010BD000000000B4000400B4010B5052066
:101DF00000F04CFB074C0820A1780143052000F0BF
:101E0000F1FC0420FEF7BCFEA178052000F0EAFCFE
:101E100010BD00005800002010B5052000F08AFB1E
:101E2000074C0820A1780143052000F023FD042081
:101E3000FEF7A6FEA178052000F01CFD10BD0000F5
:101E400064000020F8B51C4D286A0127FF03B84341
:101E500028620520FEF784FE286A291508432862B7
:101E60000520FEF77DFE154C206A082108432062FC
:101E70000520FEF775FE206A042630432062052007
:101E8000FEF76EFE0420FEF77BFE206AB043206260
:101E90000520FEF765FE0420FEF772FE206A30433F
:101EA00020620520FEF75CFE286A38432862052080
:101EB000FEF756FEF8BD000000000B4000600B402E
:101EC00070B51C4C206A0126F602B0432062052042
:101ED000FEF746FE1848016A0122114301620520FF
:101EE000FEF73EFE206A6115084320620520FEF7DA
:101EF00037FE206AA515284320620520FEF730FE34
:101F00000420FEF73DFE206AA84320620520FEF76C
:101F100027FE0420FEF734FE206A284320620520B5
:101F2000FEF71EFE206A304320620520FEF718FEF1
:101F300070BD000000400B4000600B4010B5032155
:101F40000843FFF72BFD10BD10B503210843FFF731
:101F50003DFD10BD70B50D4601461C4616460120DC
:101F600000F040FC2946022000F03CFC31460420F1
:101F700000F038FC054D902069780143032000F003
:101F800031FCE8782043FFF7D9FF70BD58000020EE
:101F900070B50D4601461C461646012000F06AFC4D
:101FA0002946022000F066FC3146042000F062FC65
:101FB000054D902069780143032000F05BFCE87830
:101FC0002043FFF7C1FF70BD6400002094B02821BA
:101FD00006A8FEF702F900210120800401230A4629
:101FE000FEF74EFD0124494D640300222146284698
:101FF000FEF7CEFD012221462846FEF7D1FD454CD5
:1020000043486064FFF7DEF9FEF782FC012020649C
:10201000FFF730F97D24E4002046FEF7A5FDFFF729
:102020007BF92046FEF7A0FD12AE002410AFFEF7AC
:102030004DFEA5007051014637A0FFF70BFA322084
:10204000FEF792FDFEF76CFE7851014635A0FFF7D2
:1020500001FAFEF793FE2A4611ADA850014634A0BE
:10206000FFF7F8F9641CE2D0C820FEF77DFD29488F
:102070000021C1638163012149032448FEF7ADFDBE
:10208000012826D000240125A00011AA3158125899
:1020900010AB185801230095049205910390029506
:1020A00001951A4619461846FEF71AF90746641CA8
:1020B000EAD0012149031548FEF78FFD012820D001
:1020C0001E491FA0FFF7C6F91E491C48FEF785F8F8
:1020D000ABE70024A00010AA37582B5812580D481F
:1020E000016B029103A98CC1C26A816A1C30019202
:1020F00000910EC80120FEF7AFF90746641CE9D035
:10210000D7E73846FEF794FBDEE7000000400B40BF
:10211000FC130020040000205A203A2025780D0AE4
:102120000000000058203A2025780D0A0000000029
:1021300059203A2025780D0A000000007400002084
:10214000257300008813000010B507210843FFF72E
:1021500025FC10BD10B507210843FFF737FC10BD63
:1021600070B50D4601461C461646012000F03AFBAC
:102170002946022000F036FB3146042000F032FBF5
:10218000054D102069780143032000F02BFBE8780F
:102190002043FFF7D9FF70BD5800002070B50D46F1
:1021A00001461C461646012000F064FB2946022029
:1021B00000F060FB3146042000F05CFB054D102070
:1021C00069780143032000F055FBE8782043FFF7CE
:1021D000C1FF70BD6400002010B5544C01282BD005
:1021E000012280212046FEF7D3FC01224021204617
:1021F000FEF7CEFC012220212046FEF7C9FC012279
:1022000010212046FEF7C4FC012208212046FEF7DB
:10221000BFFC012204212046FEF7BAFC0122022164
:102220002046FEF7B5FC012211462046FEF7B0FC21
:102230000520FEF795FC10BD002280212046FEF708
:10224000A7FC002240212046FEF7A2FC002220210C
:102250002046FEF79DFC002210212046FEF798FC48
:10226000002208212046FEF793FC0022042120468C
:10227000FEF78EFC002202212046FEF789FC002298
:1022800001212046FEF784FC002280212046FEF733
:102290008FFC002240212046FEF78AFC00222021EC
:1022A0002046FEF785FC002210212046FEF780FC28
:1022B000002208212046FEF77BFC00220421204654
:1022C000FEF776FC002202212046FEF771FC002278
:1022D00001212046FEF76CFC012280212046FEF7FA
:1022E0005FFC012240212046FEF75AFC01222021FA
:1022F0002046FEF755FC012210212046FEF750FC37
:10230000012208212046FEF74BFC01220421204631
:10231000FEF746FC012202212046FEF741FC012285
:1023200011462046FEF73CFC82E7000000200B40EF
:1023300070B5544D544C01282BD0012280212846E1
:10234000FEF726FC012240212846FEF721FC01224F
:1023500020212046FEF71CFC012210212046FEF71A
:1023600017FC012208212046FEF712FC012204215D
:102370002046FEF70DFC012202212046FEF708FC54
:10238000012211462046FEF703FC0520FEF7E8FB7C
:1023900070BD002280212846FEF7FAFB0022402172
:1023A0002846FEF7F5FB002220212046FEF7F0FB31
:1023B000002210212046FEF7EBFB002208212046D8
:1023C000FEF7E6FB002204212046FEF7E1FB002297
:1023D00002212046FEF7DCFB002201212046FEF709
:1023E000D7FB002280212846FEF7E2FB0022402195
:1023F0002846FEF7DDFB002220212046FEF7D8FB11
:10240000002210212046FEF7D3FB0022082120469F
:10241000FEF7CEFB002204212046FEF7C9FB002276
:1024200002212046FEF7C4FB002201212046FEF7D0
:10243000BFFB012280212846FEF7B2FB012240218A
:102440002846FEF7ADFB012220212046FEF7A8FB1F
:10245000012210212046FEF7A3FB0122082120467D
:10246000FEF79EFB012204212046FEF799FB012284
:1024700002212046FEF794FB012211462046FEF77A
:102480008FFB82E700000B4000400B40F8B5274C63
:102490000546216A0122D203914321620520FEF7FD
:1024A0005FFB2846FFF7E6FB6420FEF769FB204D43
:1024B000286A0226B04328620520FEF751FB206AF5
:1024C000B702B84320620520FEF74AFB206A384372
:1024D00020620520FEF744FBFF20FFF7CBFB6420C2
:1024E000FEF74EFB0120FFF777FE286A3043286293
:1024F0000520FEF735FB206A7503A84320620520FE
:10250000FEF72EFB00F06AF8206A284320620520BF
:10251000FEF726FB206A6900084320620520FEF7CB
:102520001FFB0020FFF758FEF8BD000000000B4025
:1025300000600B40F8B5274C0546216A0122D20203
:10254000914321620520FEF70BFB2846FFF7EEFBC7
:102550006420FEF715FB204D286AA615B0432862BB
:102560000520FEF7FDFA286AF701B8432862052026
:10257000FEF7F6FA286A384328620520FEF7F0FADB
:10258000FF20FFF7D3FB6420FEF7FAFA0120FFF7E4
:10259000CFFE286A304328620520FEF7E1FA206A60
:1025A0002515A84320620520FEF7DAFA00F052F85C
:1025B000206A284320620520FEF7D2FA206A6900CB
:1025C000084320620520FEF7CBFA0020FFF7B0FE9B
:1025D000F8BD000000400B4000200B4010B51B4828
:1025E000002181701A49CA69120601D580228270C1
:1025F000CA69520602D5827840328270CA69920650
:1026000002D5827820328270CA69D20602D58278D9
:1026100010328270CA69120702D58278083282703D
:10262000CA69520702D58278121D8270CA69920760
:1026300002D58278921C8270C969C90702D081785C
:10264000491C81700520FEF78BFA10BD5800002050
:1026500000200B4010B51C48002181701B49CA693D
:10266000120601D580228270C969490602D5817897
:10267000403181701649CA69920602D582782032AB
:102680008270CA69D20602D5827810328270CA6915
:10269000120702D5827808328270CA69520702D5C1
:1026A0008278121D8270CA69920702D58278921CC4
:1026B0008270C969C90702D08178491C81700520E0
:1026C000FEF74EFA10BD00006400002000000B4031
:1026D00000400B4010B507210843FFF75FF910BD1C
:1026E00010B507210843FFF771F910BDFFB581B0A0
:1026F0000BACF0CC0146102000F074F811200299C8
:1027000000F070F81220039900F06CF8132004997F
:1027100000F068F814200A9900F064F821461520AA
:1027200000F060F82946162000F05CF831461720CA
:1027300000F058F81021012000F054F80821022080
:1027400000F050F83946042000F04CF8054CD02039
:1027500061780143032000F045F8E078FFF7BAFF05
:1027600005B0F0BD58000020FFB581B00BACF0CC37
:102770000146102000F07EF81120029900F07AF84E
:102780001220039900F076F81320049900F072F8F3
:1027900014200A9900F06EF82146152000F06AF81E
:1027A0002946162000F066F83146172000F062F83E
:1027B0001021012000F05EF80821022000F05AF8F4
:1027C0003946042000F056F8054CD02061780143CA
:1027D000032000F04FF8E078FFF782FF05B0F0BD6E
:1027E00064000020F3B5214C81B0216A0546012721
:1027F000FF03B94321620520FEF7B2F92846FFF72F
:1028000039FA1B4D286A0221884328620520FEF709
:10281000A7F9206A3E11B04320620520FEF7A0F917
:10282000206A304320620520FEF79AF90298FFF7EC
:1028300021FA286A0221084328620520FEF790F950
:10284000206AB04320620520FEF78AF9206A3043EF
:1028500020620520FEF784F9206A384320620520B3
:10286000FEF77EF9FF20FFF705FAFEBD00000B40E2
:1028700000600B40F3B5214D81B0296A0446012761
:10288000FF02B94329620520FEF76AF92046FFF7E7
:102890004DFA1B4C206AA115884320620520FEF7E3
:1028A0005FF9206A3E01B04320620520FEF758F927
:1028B000206A304320620520FEF752F90298FFF7A4
:1028C00035FA206AA115084320620520FEF748F971
:1028D000206AB04320620520FEF742F9206A3043A7
:1028E00020620520FEF73CF9286A3843286205205B
:1028F000FEF736F9FF20FFF719FAFEBD00400B4046
:1029000000200B4025303278253032783264253073
:10291000327825303278326425303278253032787A
:1029200032302530327825303278336125303278B4
:1029300025303278336125303278253032783232A2
:1029400032633061000000006829000000000020B0
:1029500074000000EA140000DC290000740000206C
:1029600064160000FA1400000000000000000000DF
:102970000000000000000000000000000000000057
:102980000000000000000000010000000100000045
:102990000100000001000000000000000000000035
:1029A0000000000000000000000000000100000026
:1029B0000000000000000000000000000000000017
:1029C0000000000000000000000000000000000007
:0C29D000000000000000000000000000FB
:04000005000000C136
:00000001FF
