:020000040000FA
:10000000D0160020C1000000190C0000550B0000A4
:10001000FFFFFFFFFFFFFFFFFFFFFFFFFFFFFFFFF0
:10002000FFFFFFFFFFFFFFFFFFFFFFFF550C00007B
:10003000FFFFFFFFFFFFFFFF3D0C0000C50C0000AE
:1000400035010000350100003501000035010000D8
:1000500035010000350100003501000035010000C8
:1000600035010000FFFFFFFF3501000035010000F2
:10007000350100003501000035010000FFFFFFFFE2
:10008000FFFFFFFF350100003501000035010000D2
:100090003501000035010000350100003501000088
:1000A000C50D0000350100003501000035010000DC
:1000B0003501000035010000350100003501000068
:1000C0001D4880471D4880471D4800471D4801695D
:1000D000002908D14169002905D18169002902D18F
:1000E000C169002909D01848C1680901090D002912
:1000F0000ED005290CD006290AD0BFF34F8F134824
:100100001349016013491248C860BFF34F8FFEE7DF
:100110000E4801680E48884200D070470E480F49CB
:1001200001600A480E4901607047FEE7FEE7FEE7FE
:10013000FEE7FEE7FEE70000CD000000C90C00006E
:100140006501000000030840800108400000002015
:100150000400FA0500ED00E0008108400100000005
:10016000000000000348854600F086F8004800477C
:10017000E5180000D016002030B50B4601460020DF
:100180002022012409E00D46D5409D4205D31D469D
:100190009540491B2546954040191546521E002D95
:1001A000F1DC30BD70B500242546002801DA0124B9
:1001B0004042002901DA01254942FFF7DDFFAC4248
:1001C00000D04042002C00D0494270BDD2B201E0C4
:1001D0000270401C491EFBD270470022F6E710B5A2
:1001E00013460A4604461946FFF7F0FF204610BDA5
:1001F000421E5378521C002BFBD10B781370491C04
:10020000521C002BF9D17047421C0178401C002978
:10021000FBD1801A7047F0B51FB40646002082B0AB
:1002200005464024019100901BE0019922460F46AB
:10023000304600F043F8049A059B801A994110D388
:1002400010461946224600F029F8361A8F410197C8
:10025000224601200021009F00F020F838184D416F
:1002600000902046641E0028DFDC019B0098294690
:10027000324607B0F0BD0000064C0125064E05E0F1
:10028000E36807CC2B430C3C98471034B442F7D3B7
:10029000FFF76CFF101E0000301E000010B5202A72
:1002A00004DB0146203A9140002010BD91402023FC
:1002B0009C1A0346E3401943904010BD10B5202A14
:1002C00004DB0846203AD040002110BD0B46D34045
:1002D000D0402024A21A91400843194610BD0000C6
:1002E000FFB5FFB0FFB087B0FFA83C30B0C87D219C
:1002F000C9000AA8FFF771FF9C4EF06B00281DD0C3
:100300009BA10AA800F0E8FE0AA99B48FFF770FF2E
:1003100000213C2F1ADB3163F06A0027401C6D1C62
:10032000F0623C2D12DBF162B06A641C401C0D4689
:10033000B062182C11DB0024B5620BE08F498E48A7
:10034000FFF74BFF01208EA1F063DAE7182C04DBE6
:100350000C46B162706A401C7062642000F01AFBA7
:10036000FFA8806981493030891C0870FFA80A21E4
:10037000C069FFF717FF02467C483032001D02704B
:1003800030314170FFA80A21006AFFF70BFF0246D7
:1003900076483032801D027030314170801F0A2152
:1003A000406AFFF7FFFE02467048303208300270A4
:1003B000303141700A212046FFF7F4FE02466B48B7
:1003C00030320A300270303141700A212846FFF77E
:1003D000E9FE0246654E30320C36327030317170B3
:1003E0000A213846FFF7DEFE02463032B71C3A706B
:1003F00030317970FFA86421806CFFF7D3FEB41D03
:100400003030A070FFA80A21806CFFF7CBFE0D46AC
:100410000A21FFF7C7FE3031617029463031217063
:10042000FFA86421C06CFFF7BDFEE51C3030A8704A
:10043000FFA80A21C06CFFF7B5FE00910A21FFF763
:10044000B1FE303169700099FFA8303129700A215E
:10045000006DFFF7A7FE02463032A01E4270303119
:10046000017049A10AA800F037FE0AA94248FFF727
:10047000BFFE20461038027844A10AA800F02CFEE6
:100480000AA93D48FFF7B4FE48A10AA800F024FEDF
:100490000AA93948FFF7ACFE717830787B783A7852
:1004A00006AE0FC6381F4278B91FBB1F00784978C7
:1004B0001B78049020460293059203910C384178F2
:1004C00000780090019120460E3843780278404928
:1004D0000AA800F001FE0AA92748FFF789FE217843
:1004E000607801910090A378244C3AA221460AA892
:1004F00000F0D8FD0AA92048FFF77AFE297868782D
:1005000001910090AB783EA221460AA800F0CAFDF6
:100510000AA91948FFF76CFE681F0378427843A1C7
:100520000AA800F0D9FD0AA91348FFF761FE0F4899
:10053000016C491E01640ED10AAC47A1204600F0AF
:10054000CBFD21460C48FFF753FE08490120086403
:10055000642000F01FFA0549086B401C0863064838
:10056000FFF752FE7FB07FB00BB0F0BD040000205B
:1005700032633061323000006800002088130000D0
:100580003562306132300000376200003061323055
:10059000323234393434323233613230323225300F
:1005A0003278323232633061000000003230323251
:1005B00034343631373436353534363936643635B9
:1005C00032323361323032323332333000000000A5
:1005D000CC1D00003230323235383566363137388E
:1005E0003639373332323361323032322530327875
:1005F0002530327825303278323232633061000073
:10060000323032323539356636313738363937336C
:10061000323233613230323225303278253032781E
:10062000253032783232326330610000323032327B
:1006300035613566363137383639373332323361E2
:1006400032303232253032782530327832323061F1
:100650003230376400000000306135640000000073
:10066000F0B596460A461349C000461800230025F7
:10067000FF2098402C46104216D0002001219940BE
:100680008C461146C1406746394206D087000F218B
:10069000B9400D437146B9400C43401C0828F0D3C3
:1006A0003068A843204330600833361D082BDEDD58
:1006B000F0BD00002020024070B505460FA000F0FC
:1006C000E1FC134C01206063A169606CFFF785FDBC
:1006D0000020A0610FA000F0D5FC00F08DFA19A059
:1006E00000F0D0FC00F088FA294620A000F0CAFCF7
:1006F000264927A000F0C6FC70BD000041542B43E2
:100700004D51444953434F4E3D300D0A0000000007
:100710000400002041542B434D514E45573D223695
:10072000312E35382E3234382E313038222C2231C9
:10073000383833222C33303030302C313030300DDB
:100740000A00000041542B434D51434F4E3D302C85
:10075000332C22636C69656E745F4A65727279220C
:100760002C31302C312C300D0A00000041542B4329
:100770004D515055423D302C222F746573742F22F9
:100780002C312C302C302C25642C000068000020EB
:10079000222573220D0A000010B511A000F072FC92
:1007A000124C204600F0F6F811A000F06BFC204639
:1007B00000F0F0F811A000F065FC00F01DFA12A0A6
:1007C00000F060FC204600F0E5F812A000F05AFCB2
:1007D00000F012FA12A000F055FC00F0C3F910BDB1
:1007E00041542B474D520D0A00000000DC0500006B
:1007F00041542B43545A523D310D0A0041542B436E
:10080000545A553D310D0A0041542B43524553452E
:10081000540D0A0041542B43475245473F0D0A00EF
:1008200041542B43434C4B3F0D0A000070B5184D0B
:100830000446686B4607760F00F02EF815492060D5
:10084000330000F05DFC081405070714140E1114A2
:10085000606000E06160296A6068052909D3400989
:1008600008E00120C003F3E77D200002F0E700204C
:10087000EEE7C840A060A96A4903490F072902D0E2
:10088000C840E06070BD0321FFF776FCF9E7000087
:100890000080084000127A000C490868C869C20F3D
:1008A0004868400AC007C00F0ED00948002A0BD183
:1008B0008869C00D0007000F00D110208969044A23
:1008C0004902890F5043C84070470000008008402B
:1008D00000127A001FB541090A4A89008A180021CE
:1008E0002E2800D10221C006C00E126803238340C7
:1008F0001A40C24054186846FFF798FF029804B0A7
:10090000E04010BD38800840F0B5084F7C6AFD6AB1
:100910003E6B84438D439643002B02D004430D432A
:1009200016437C62FD623E63F0BD0000008008401B
:100930001FB500240920029000940194022322464E
:1009400006210394802000F063F8322001F022F9A0
:1009500006480223007802900094019400220621A8
:100960000394802000F054F81FBD00005A000020BE
:100970001FB500211220009101910A4603910290B7
:1009800001230621802000F043F81FBD401EFDD248
:1009900070470000044A03E00021491C9142FCD347
:1009A000401EF9D270470000E02E000003E0002155
:1009B000491C0B29FCD3401EF9D27047002A02685B
:1009C00001D00A4300E08A4302607047002A42686F
:1009D00001D00A4300E08A4342607047002A08D0F1
:1009E000012A09D082688A438260C2688A43C26051
:1009F000704782680A43F7E7C2680A43C2608268A8
:100A00008A4382607047C069084000D00120704767
:100A1000FFB585B01A4F96463A789C460E9B0F99C3
:100A2000109D1198009304920191039000243026A8
:100A30000295634672460699059801F041F9E00770
:100A400013D000233A783979304600F02DFF3879F9
:100A5000641C3018C6B2E4B20420FFF797FF38795F
:100A6000854204D9281AC5B2E9E74023EAE74023C2
:100A70003A780021302000F0C3FF09B0F0BD00003B
:100A800058000020F8B5124E124F134D30783870D0
:100A9000002420463030C0B2002101F04FF9641C20
:100AA000402CF6DB0D48002302784021302000F076
:100AB000FBFE342001F06EF82C78362001F06AF845
:100AC0002878002CE2D00028E0D02046F8BD0000B5
:100AD0005D000020590000205A000020580000202E
:100AE000F8B5114E114F124D307838700024204661
:100AF0003030C0B2002101F021F9641C402CF6DB3B
:100B00000C48002302784021302000F0CDFE342034
:100B100001F040F82C78362001F03CF82878002CC1
:100B2000E2D00028E0D0F8BD5D0000205900002090
:100B30005A000020580000201FB500210820009115
:100B400001910A4603910290012306218020FFF7BC
:100B50005FFF1FBD024801680029FCD070470000FC
:100B60005400002070B500242048FFF713FF214DEA
:100B700000201F4A696C03E00B5C1355401C641C89
:100B8000AB699842F8D3907C0A243038D37C604318
:100B900030381818E861507D937D30386043303824
:100BA00018182862107E537E303860433038181889
:100BB0006862D07E137F3038604328381818A862E6
:100BC000907FD37F30386043303818182032E86285
:100BD00050789378303860433038181828630021F3
:100BE0000348FFF7FAFA0020A86170BDB80B0000B7
:100BF000701400200400002010B5FF20F530FFF72E
:100C0000C9FE044CA169606CFFF7E7FA0020A061FF
:100C100010BD000004000020704700000548064990
:100C200002E08A68272A03D0401EFAD101207047CB
:100C30000020704700366E0100A10640704700009A
:100C40000349C2B20A600A69D205FCD570470000A8
:100C5000000004407047000000B50C4A85B0002138
:100C60001070517001910291039104910B4602465C
:100C700000910521002001F023F8002240231146B5
:100C8000302000F011FE05B000BD0000580000202B
:100C900010B50B4C86B02178002004910190029091
:100CA0000390034601220090092101F009F8402336
:100CB00022780021302000F0F7FD06B010BD0000C2
:100CC0005800002070470000F0B539491020C86076
:100CD000384A012010603849086B402528430863D2
:100CE0003648002344158668272EFCD100E0446076
:100CF0004668B605FBD500E043604668B605FBD400
:100D00001360486A032292029043486248680122B5
:100D1000D202104348608868C008C007FBD048680A
:100D2000C008C000C01C4860486B4007400F032843
:100D3000FAD1234A1068C008C000401C10600B6242
:100D40004868A043486008689615304308604868C2
:100D500017153843486088688008C007FBD0086BC7
:100D6000A84308630868B043086003200006886150
:100D700048682043486088684008C007FBD0106876
:100D8000C008C000801C10600B624868C008C0002A
:100D9000401C4860486B4007400F0128FAD110689A
:100DA0001021084310601068090208431060F0BD6C
:100DB00000810840008308400080084000A10640F0
:100DC0000002084070B52A4D2021284600F05CF84A
:100DD000002813D0284600F0ABF8264C02462168C4
:100DE000254800684318491C21601A702168802931
:100DF00004D12168FFF7F1F9002020600221284684
:100E000000F047F800281CD08021284600F03CF86C
:100E1000002816D0194C2068002812D01848026803
:100E20001178521C0260284600F085F82168491E9E
:100E300021602068002804D100220221284600F009
:100E40006FF80421284600F024F800280ED0FF2176
:100E50000131284600F018F8002807D000220421AC
:100E6000284600F05DF807490120086070BD0000C9
:100E7000000004401C00002048000020000000206A
:100E8000500000204C0000200069084000D00120E4
:100E90007047C068084000D00120704770B5044614
:100EA0000D46C8888988626808432989184B1A400A
:100EB0001143084369890843606001208007844228
:100EC00006D11820FFF706FD2968FFF755F9606283
:100ED0001048844206D11A20FFF7FCFC2968FFF76E
:100EE0004BF960620C48844206D11C20FFF7F2FCEB
:100EF0002968FFF741F960620848844206D11E2044
:100F0000FFF7E8FC2968FFF737F9606270BD000061
:100F1000FCE0FFFF0000044000100040001004400F
:100F2000002AC26801D00A4300E08A43C2607047C9
:100F3000006880B270470160704710238B404168A1
:100F4000002A01D0194300E0994341607047000036
:100F500070B5234C0122D1032046FFF72FFD01225B
:100F600091032046FFF72AFD0122D1022046FFF718
:100F700025FD012291022046FFF720FD194C012298
:100F800002212046FFF71AFD012204212046FFF727
:100F900015FD012208212046FFF710FD00F066FB39
:100FA000114D08202870FFF7C7FD372000F0F2FD33
:100FB0000A20FFF7EBFC0D4C207828700120FFF78A
:100FC0004BFEFFF7D5FCFFF7B3FC322000F0E2FD4B
:100FD00007492078087000F015FBFFF759FE70BD37
:100FE00000000B4000600B405C0000205A00002015
:100FF000040000203EB50F202121002440220004DF
:1010000049020123FFF780FCFFF708FE002800D00B
:10101000FEE7002220211848FFF7E0FC06221021FD
:101020000020FFF71DFB062220210020FFF718FB00
:10103000E12040020090FF200194029401306946B3
:101040008880CC800C814C810C4C2046FFF726FF19
:101050000B4AA1011160012211462046FFF760FFF3
:10106000012200212046FFF768FF01221146204699
:10107000FFF763FF3EBD000000000B40000004408E
:1010800000E100E00FB410B503A9044B044A029834
:1010900000F052F810BC08BC04B01847FD15000061
:1010A000640000200FB41CB50246002007AC0029E4
:1010B0000BD0491E01910092064B6A4621460698C4
:1010C00000F03AF8009A002111701CBC08BC04B072
:1010D00018470000AD1500000FB410B504A9074B68
:1010E00002AA039800F028F8044602A9002000F0A4
:1010F00068FA204610BC08BC04B01847C3150000AD
:1011000030B47446641E2578641CAB4200D21D4680
:10111000635D5B00E31830BC184702E008C8121F8B
:1011200008C1002AFAD170477047002001E001C1D0
:10113000121F002AFBD17047FFB591B00F4605463C
:10114000002606E025280AD0149A139990476D1CB2
:10115000761C28780028F5D1304615B0F0BD002463
:1011600000940121F34A029400E004436D1C2B78A3
:101170000846203B98401042F7D128782A280ED004
:10118000022128780246303A092A15D8009A0A2303
:101190005A43303A80180C436D1C0090F1E701CFA0
:1011A0000090002805DA01204003044300984042E3
:1011B0000090022004436D1C28782E2815D10420AD
:1011C000044368786D1C2A280AD101CF6D1C029057
:1011D0000BE002990A225143303940186D1C0290ED
:1011E0002878014630390929F3D928786C2810D09D
:1011F00006DC4C281AD068280ED06A2817D104E0E3
:10120000742813D07A2812D110E00120400504433D
:101210000CE00121090501E0032109050C4369786F
:10122000814203D10120000524186D1C6D1C287813
:1012300003906E281ED00CDC632831D004DC00281B
:101240008AD0582811D1B2E064287BD069280CD10B
:1012500078E073282DD004DC6F2870D0702804D17A
:10126000A7E075286CD078286BD0149A1399904712
:10127000761C62E06002400F022807D003280AD0E3
:10128000042838680AD006603F1D56E03868F11718
:1012900006604160F8E738680680F5E70670F3E716
:1012A0003878694608740020487404A80390012027
:1012B00003E0386803900020C0433F1D61070FD54D
:1012C000002101E00199491C029A0191914213DA2F
:1012D0008142F7DB019A0399895C0029F2D10BE086
:1012E000002101E00199491C01918142FADB019A38
:1012F0000399895C0029F5D101990098139A401A45
:1013000000902146149B00F03BF901998019461882
:1013100007E0039803990078491C0391149A1399E4
:1013200090470198401E0190401CF2D12146149B29
:10133000139A009800F014F986196D1C09E741E032
:1013400033E034E00A200021049005916002410F4F
:10135000022905D001CFC2179446032905D007E022
:10136000FF1DFF08FF0003CF06E000B2C21794463E
:10137000042902D140B2C1178C460022614694452F
:1013800006DA0A460021404291418C462D2102E0B6
:10139000210504D52B216A461176012103E0E107DE
:1013A00001D02021F7E7019154E00A200BE0102042
:1013B00009E0102004900021042004430820059136
:1013C000029003E008200021059104906002410F83
:1013D000022905D001CF00229446032906D006E059
:1013E000FF1DFF08FF0003CF8C4603E080B20429F5
:1013F00000D1C0B20021019121072BD5039970299A
:1014000006D0049A1021059B4A401A4305D00EE0ED
:1014100040216A461176012108E06146014306D069
:1014200030216A4611760399517602210191049A7E
:101430000821059B4A401A430CD16146014301D162
:10144000610707D530216A46117601210191029981
:10145000491E02910399582904D037A103910FA97D
:101460000F910DE039A1F9E76146059B049AFEF75B
:10147000D2FE039B8C469B5C0F9A521E0F921370F8
:1014800061460143F0D10F9807A9081A2030039054
:10149000600704D5012000048443029801E0012084
:1014A00002900399884201DD401A00E000204118B3
:1014B0000290019809180098401A0090E00306D4A1
:1014C0002146149B139A009800F05AF886190020C0
:1014D000049008E006A9085C149A139990470498B0
:1014E000401C761C049001998842F3DBE0030CD584
:1014F0002146149B139A009800F042F8861904E0E4
:10150000149A302013999047761C0299481E029035
:101510000029F5DC08E00F980F990078491C0F911D
:10152000149A13999047761C0399481E039000293A
:10153000F1DCFBE60928010030313233343536372F
:10154000383961626364656600000000303132330F
:1015500034353637383941424344454600000000AF
:10156000F8B5044600251E461746880404D405E055
:1015700039462020B0476D1C641EF9D52846F8BDB9
:10158000FFB50446002581B01E46C80301D53027AB
:1015900000E02027880404D505E038460399B047C9
:1015A0006D1C641EF9D5284605B0F0BD4A68002AB6
:1015B00006D00A68531C0B6010704868401E4860D3
:1015C00070470A68531C0B601070704770B5064670
:1015D0000020094C7D25ED00A060304600F02AF87F
:1015E000A178480705D5A068A84204D2401CA06095
:1015F000F3E7C807F1D070BD5800002010B5FFF721
:101600001FFB10BD70B50A4D3024204600F0C2FA11
:10161000A878072802D02018C4B2F6E7A41CE0B2CC
:1016200000F0B8FAA8784006400E687170BD00005E
:101630005800002010B50446FF210D2000F07EFB6D
:101640002146002000F07AFB074C0D2000F0A2FAA2
:10165000A078C007F9D0FF210D2000F06FFB032018
:1016600000F098FA10BD00005800002010B500F0FE
:10167000D7F8AE210F2000F061FB0F2000F08AFAAE
:101680000821052000F05AFB052000F083FA042011
:10169000FFF78CF90021052000F050FB052000F039
:1016A00079FA6121062000F049FB062000F072FA69
:1016B000214CFF210D2000F041FB0D2000F06AFAC3
:1016C000A0784028F5D0C0B2802826D0E0210E2096
:1016D00000F034FBEE210F2000F030FB212105202B
:1016E00000F02CFB0020E0705021032000F026FBCE
:1016F0000021042000F022FB0121002000F01EFB4D
:101700000420FFF753F9FF210D2000F017FB00F034
:1017100071F8FA20FFF74AF910BDE0210E2000F021
:101720000DFBAE210F2000F009FB0521084600F05B
:1017300005FB2020D7E700005800002010B5C209A3
:1017400080232B49002A0A6A01D01A4300E09A43F9
:101750000A624006400E43064022002B0B6A01DA63
:10176000134300E093430B628006800E8306202221
:10177000002B0B6A01DA134300E093430B62C006AF
:10178000C00EC2061023002A0A6A01DA1A4300E0DA
:101790009A430A620007000F02070823002A0A6A18
:1017A00001DA1A4300E09A430A624007400F4307F8
:1017B0000422002B0B6A01DA134300E093430B620F
:1017C0008007800F82070223002A0A6A01DA1A437F
:1017D00000E09A430A62C007086A02D0012210435F
:1017E00001E04008400008620520FFF7CFF810BD77
:1017F00000200B4010B5052000F0CCF9074C082064
:10180000A1780143052000F099FA0420FFF7CEF8F3
:10181000A178052000F092FA10BD000058000020C9
:10182000F8B51C4D286A0127FF03B843286205203C
:10183000FFF7ACF8286A2915084328620520FFF74E
:10184000A5F8154C206A0821084320620520FFF7FF
:101850009DF8206A0426304320620520FFF796F8A1
:101860000420FFF7A3F8206AB04320620520FFF7A9
:101870008DF80420FFF79AF8206A30432062052093
:10188000FFF784F8286A384328620520FFF77EF8BE
:10189000F8BD000000000B4000600B4010B50321B4
:1018A0000843FFF793FE10BD70B50D4601461C4678
:1018B0001646012000F042FA2946022000F03EFAC6
:1018C0003146042000F03AFA054D90206978014332
:1018D000032000F033FAE8782043FFF7DFFF70BD04
:1018E0005800002092B0282106A8FEF776FC0021BF
:1018F0000120800401230A46FFF706F80124304D39
:101900002403002221462846FFF758F801222146E9
:101910002846FFF75BF82C4C2A486064FFF76AFB07
:10192000FEF73AFF01202064FFF712FB11AE0024FE
:1019300010AFFFF7A7F8A5007051014623A0FFF7ED
:10194000A1FB1E20FFF726F8FFF7CAF878510146E1
:1019500021A0FFF797FB1E20FFF71CF8641CE8D0BE
:1019600019480025C5632C4607468563A10010A8C9
:10197000405871583A6B0595029203910490F96AA8
:10198000B86A0191009039461C310EC90120FEF75A
:10199000A7FC0090641CE9D0012109030848FFF767
:1019A00032F8012807D00098FEF786FE0D490E4850
:1019B000FEF713FCBBE70C490CA0FFF763FBF5E750
:1019C00000400B40F01300200400002058203A2073
:1019D00025780D0A0000000059203A2025780D0ACC
:1019E00000000000881300006800002025730D0A25
:1019F0000000000010B507210843FFF7E7FD10BD08
:101A000070B50D4601461C461646012000F096F9B9
:101A10002946022000F092F93146042000F08EF9A8
:101A2000054D102069780143032000F087F9E8781C
:101A30002043FFF7DFFF70BD5800002010B5544C65
:101A400001282BD0012280212046FEF7B7FF01227A
:101A500040212046FEF7B2FF012220212046FEF75A
:101A6000ADFF012210212046FEF7A8FF0122082128
:101A70002046FEF7A3FF012204212046FEF79EFF29
:101A8000012202212046FEF799FF0122114620463D
:101A9000FEF794FF0520FEF779FF10BD002280219C
:101AA0002046FEF78BFF002240212046FEF786FFEE
:101AB000002220212046FEF781FF0022102120462F
:101AC000FEF77CFF002208212046FEF777FF002268
:101AD00004212046FEF772FF002202212046FEF775
:101AE0006DFF002201212046FEF768FF00228021C1
:101AF0002046FEF773FF002240212046FEF76EFFCE
:101B0000002220212046FEF769FF002210212046F6
:101B1000FEF764FF002208212046FEF75FFF002247
:101B200004212046FEF75AFF002202212046FEF73C
:101B300055FF002201212046FEF750FF012280219F
:101B40002046FEF743FF012240212046FEF73EFFDC
:101B5000012220212046FEF739FF012210212046D4
:101B6000FEF734FF012208212046FEF72FFF012255
:101B700004212046FEF72AFF012202212046FEF71B
:101B800025FF012211462046FEF720FF82E70000D4
:101B900000200B40F8B5274C0546216A0122D203EC
:101BA000914321620520FEF7F1FE2846FFF7C6FDAE
:101BB0006420FEF7FBFE204D286A0226B04328620F
:101BC0000520FEF7E3FE206AB702B8432062052035
:101BD000FEF7DCFE206A384320620520FEF7D6FEC1
:101BE000FF20FFF7ABFD6420FEF7E0FE0120FFF7CA
:101BF00025FF286A304328620520FEF7C7FE206AC9
:101C00007503A84320620520FEF7C0FE00F016F819
:101C1000206A284320620520FEF7B8FE206A69008A
:101C2000084320620520FEF7B1FE0020FFF706FF03
:101C3000F8BD000000000B4000600B4010B51B48D1
:101C4000002181701A49CA69120601D5802282706A
:101C5000CA69520602D5827840328270CA699206F9
:101C600002D5827820328270CA69D20602D5827883
:101C700010328270CA69120702D5827808328270E7
:101C8000CA69520702D58278121D8270CA6992070A
:101C900002D58278921C8270C969C90702D0817806
:101CA000491C81700520FEF771FE10BD5800002010
:101CB00000200B4010B507210843FFF787FC10BD3B
:101CC000FFB581B00BACF0CC0146102000F036F827
:101CD0001120029900F032F81220039900F02EF83A
:101CE0001320049900F02AF814200A9900F026F82D
:101CF0002146152000F022F82946162000F01EF893
:101D00003146172000F01AF81021012000F016F8D3
:101D10000821022000F012F83946042000F00EF8E5
:101D2000054CD02061780143032000F007F8E078EB
:101D3000FFF7C0FF05B0F0BD58000020F3B5214CFF
:101D400081B0216A05460127FF03B94321620520BE
:101D5000FEF71CFE2846FFF7F1FC1B4D286A022106
:101D6000884328620520FEF711FE206A3E11B04329
:101D700020620520FEF70AFE206A3043206205201B
:101D8000FEF704FE0298FFF7D9FC286A02210843F7
:101D900028620520FEF7FAFD206AB0432062052084
:101DA000FEF7F4FD206A304320620520FEF7EEFDC9
:101DB000206A384320620520FEF7E8FDFF20FFF788
:101DC000BDFCFEBD00000B4000600B4025303278AA
:101DD00025303278326425303278253032783264DA
:101DE000253032782530327832302530327825303F
:101DF00032783361253032782530327833612530BE
:101E0000327825303278323232633061000000009F
:101E1000301E000000000020680000001A110000C1
:101E2000981E000068000020681600002A110000BB
:101E300000000000000000000000000000000000A2
:101E40000000000000000000000000000000000092
:101E50000000000000000000000000000000000082
:101E60000000000000000000000000000000000072
:101E70000000000001000000000000000000000061
:101E80000000000000000000000000000000000052
:081E900000000000000000004A
:04000005000000C136
:00000001FF
