:020000040000FA
:10000000D8160020C10000004D100000890F00002C
:10001000FFFFFFFFFFFFFFFFFFFFFFFFFFFFFFFFF0
:10002000FFFFFFFFFFFFFFFFFFFFFFFF8910000043
:10003000FFFFFFFFFFFFFFFF7110000065110000D1
:1000400035010000350100003501000035010000D8
:1000500035010000350100003501000035010000C8
:1000600035010000FFFFFFFF3501000035010000F2
:10007000350100003501000035010000FFFFFFFFE2
:10008000FFFFFFFF350100003501000035010000D2
:100090003501000035010000350100003501000088
:1000A0006512000035010000350100003501000037
:1000B0003501000035010000350100003501000068
:1000C0001D4880471D4880471D4800471D4801695D
:1000D000002908D14169002905D18169002902D18F
:1000E000C169002909D01848C1680901090D002912
:1000F0000ED005290CD006290AD0BFF34F8F134824
:100100001349016013491248C860BFF34F8FFEE7DF
:100110000E4801680E48884200D070470E480F49CB
:1001200001600A480E4901607047FEE7FEE7FEE7FE
:10013000FEE7FEE7FEE70000CD00000069110000C9
:100140006501000000030840800108400000002015
:100150000400FA0500ED00E0008108400100000005
:10016000000000000348854600F086F8004800477C
:100170006D210000D816002030B50B460146002046
:100180002022012409E00D46D5409D4205D31D469D
:100190009540491B2546954040191546521E002D95
:1001A000F1DC30BD70B500242546002801DA0124B9
:1001B0004042002901DA01254942FFF7DDFFAC4248
:1001C00000D04042002C00D0494270BDD2B201E0C4
:1001D0000270401C491EFBD270470022F6E710B5A2
:1001E00013460A4604461946FFF7F0FF204610BDA5
:1001F000421E5378521C002BFBD10B781370491C04
:10020000521C002BF9D17047421C0178401C002978
:10021000FBD1801A7047F0B51FB40646002082B0AB
:1002200005464024019100901BE0019922460F46AB
:10023000304600F043F8049A059B801A994110D388
:1002400010461946224600F029F8361A8F410197C8
:10025000224601200021009F00F020F838184D416F
:1002600000902046641E0028DFDC019B0098294690
:10027000324607B0F0BD0000064C0125064E05E0F1
:10028000E36807CC2B430C3C98471034B442F7D3B7
:10029000FFF76CFFFC2A00001C2B000010B5202A81
:1002A00004DB0146203A9140002010BD91402023FC
:1002B0009C1A0346E3401943904010BD10B5202A14
:1002C00004DB0846203AD040002110BD0B46D34045
:1002D000D0402024A21A91400843194610BD0000C6
:1002E000FFB5FFB0FFB087B0FFA83C30B0C87D219C
:1002F000C9000AA8FFF771FF964EF06B00280DD0D9
:1003000095A10AA801F0A0F90AA99448FFF770FF87
:1003100000213C2F0ADA002F08D01AE090498F48BC
:10032000FFF75BFF01208FA1F063EAE73163F06A1A
:100330006D1C401C0F46F0623C2D0ADBF762B06A70
:10034000641C401C3D46B062182C09DB2C46B5628B
:1003500003E0182C04DB0C46B162706A401C70622A
:10036000322000F0BFFCFFA880693030C1B279486C
:100370000091801C0170FFA80A21C069FFF712FFDD
:10038000024674483032001D027030314170FFA8BF
:100390000A21006AFFF706FF02466E483032801DD0
:1003A000027030314170801F0A21406AFFF7FAFE67
:1003B00002466848303208300270303141700A21FC
:1003C0002046FFF7EFFE0246624830320A300270E4
:1003D000303141700A212846FFF7E4FE02465D4EA7
:1003E00030320C363270303171700A213846FFF7E6
:1003F000D9FE02463032B01C027030314170FFA885
:100400006421806CFFF7CEFEB41D3030A070FFA8D1
:100410000A21806CFFF7C6FE0D460A21FFF7C2FED7
:1004200030316170294630312170FFA86421C06CE1
:10043000FFF7B8FEE51C3030A870FFA80A21C06C99
:10044000FFF7B0FE0F460A21FFF7ACFE30316970AE
:10045000394630312970FFA80A21006DFFF7A2FE4E
:1004600002463032A71E7A70303139703EA10AA898
:10047000009A01F0E9F80AA93848FFF7B9FE231FEE
:10048000221F717830785B78127806AE0FC620464E
:1004900021460A38BB1FBA1F0A3900785B781278E8
:1004A000497802AE0FC6214620460C390C384978EF
:1004B00000780090019120460E38437802782CA1F4
:1004C0000AA801F0C1F80AA92448FFF791FE217893
:1004D000607801910090A378214C35A221460AA8AA
:1004E00001F098F80AA91D48FFF782FE297868787C
:1004F00001910090AB782EA221460AA801F08AF85B
:100500000AA91648FFF774FE3B787A782CA10AA84E
:1005100001F09AF80AA91148FFF76AFE0D48016C2C
:10052000491E01640BD10AAC0EA1204601F08CF8E3
:1005300021460A48FFF75CFE064901200864322084
:1005400000F0D0FB0548FFF75FFE7FB07FB00BB037
:10055000F0BD0000040000203263000074000020A1
:1005600088130000323100002530327832630000F9
:100570002530327825303278326425303278253093
:100580003278326425303278253032783230253076
:100590003278253032783361253032782530327820
:1005A00033612530327825303278323232630000C0
:1005B00025303278253032782530327832630000A9
:1005C000253032782530327800000000FFB5FFB0CA
:1005D000FFB087B0FFA83C30B0C87D21C9000AA891
:1005E000FFF7FBFD9B4EF06B00280DD09AA10AA8E7
:1005F00001F02AF80AA99A48FFF7FAFD00213C2FDA
:100600000ADA002F08D01AE096499548FFF7E5FD71
:10061000012095A1F063EAE73163F06A6D1C401C8C
:100620000F46F0623C2D0ADBF762B06A641C401C86
:100630003D46B062182C09DB2C46B56203E0182C4D
:1006400004DB0C46B162706A401C7062322000F01C
:1006500049FBFFA880697F493030891C0870FFA8DA
:100660000A21C069FFF79EFD02467A483032001D1C
:10067000027030314170FFA80A21006AFFF792FD35
:10068000024674483032801D027030314170801F44
:100690000A21406AFFF786FD02466E483032083074
:1006A0000270303141700A212046FFF77BFD02467F
:1006B000684830320A300270303141700A212846D1
:1006C000FFF770FD0246634E30320C363270303127
:1006D00071700A213846FFF765FD02463032B71CBB
:1006E0003A7030317970FFA86421806CFFF75AFDB1
:1006F000B41D3030A070FFA80A21806CFFF752FDB6
:100700000D460A21FFF74EFD303161702946303128
:100710002170FFA86421C06CFFF744FDE51C303058
:10072000A870FFA80A21C06CFFF73CFD00910A21C8
:10073000FFF738FD303169700099FFA8303129701A
:100740000A21006DFFF72EFD02463032A01E4270D6
:100750003031017046A10AA800F076FF0AA940488E
:10076000FFF746FD20461038027842A10AA800F0A3
:100770006BFF0AA93A48FFF73BFD46A10AA800F023
:1007800063FF0AA93648FFF733FD717830787B782C
:100790003A7806AE0FC6B81F3B1F3A1FB91F007844
:1007A0005B781278497802AE0FC620460C38417843
:1007B00000780090019120460E38437802783E4937
:1007C0000AA800F041FF0AA92548FFF711FD21788A
:1007D000607801910090A378224C38A221460AA8A3
:1007E00000F018FF0AA91E48FFF702FD2978687873
:1007F00001910090AB783CA221460AA800F00AFFC4
:100800000AA91748FFF7F4FC681F0378427841A152
:100810000AA800F019FF0AA91148FFF7E9FC0D48E2
:10082000016C491E01640BD10AAC45A1204600F0C1
:100830000BFF21460A48FFF7DBFC0649012008644C
:10084000322000F04FFA0648FFF7DEFC7FB07FB0A1
:100850000BB0F0BD04000020326330613230000084
:1008600074000020881300003562306132300000CF
:10087000376200003061323032323439343432324F
:100880003361323032322530327832323263306185
:1008900000000000323032323434363137343635ED
:1008A00035343639366436353232336132303232AD
:1008B0003332333000000000B82A000032303232C8
:1008C0003538356636313738363937333232336179
:1008D0003230323225303278253032782530327855
:1008E00032323263306100003230323235393566AF
:1008F000363137383639373332323361323032328B
:1009000025303278253032782530327832323263F1
:100910003061000032303232356135663631373879
:100920003639373332323361323032322530327831
:1009300025303278323230613230376400000000C6
:100940003061356400000000F0B596460A46134950
:10095000C000461800230025FF2098402C46104276
:1009600016D00020012199408C461146C1406746AF
:10097000394206D087000F21B9400D437146B94076
:100980000C43401C0828F0D33068A8432043306053
:100990000833361D082BDEDDF0BD000020200240AC
:1009A00070B5054612A000F025FE164C01206063CC
:1009B000FF20F53000F096F9A169606CFFF70DFC9F
:1009C0000020A06110A000F015FEC82000F08AF9F8
:1009D00019A000F00FFEC82000F084F9294620A0DD
:1009E00000F008FE264927A000F004FE70BD0000BC
:1009F00041542B434D51444953434F4E3D300D0A12
:100A0000000000000400002041542B434D514E458E
:100A1000573D2236312E35382E3234382E3130388B
:100A2000222C2231383833222C33303030302C31E4
:100A30003030300D0A00000041542B434D51434FDC
:100A40004E3D302C332C22636C69656E745F4A65B1
:100A5000727279222C31302C312C300D0A000000BA
:100A600041542B434D515055423D302C222F74653B
:100A700073742F222C312C302C302C25642C000048
:100A800074000020222573220D0A000010B511A069
:100A900000F0B0FD124C204600F024F911A000F047
:100AA000A9FD204600F01EF911A000F0A3FD00F002
:100AB000BDFA12A000F09EFD204600F013F912A02E
:100AC00000F098FD00F0B2FA12A000F093FD00F0E3
:100AD00063FA10BD41542B474D520D0A000000002F
:100AE000DC05000041542B43545A523D310D0A009D
:100AF00041542B43545A553D310D0A0041542B4368
:100B000052455345540D0A0041542B434752454723
:100B10003F0D0A0041542B43434C4B3F0D0A00004C
:100B200070B5184D0446686B4607760F00F02EF836
:100B300015492060330000F09BFD081405070714D9
:100B4000140E1114606000E06160296A6068052974
:100B500009D3400908E00120C003F3E77D2000022B
:100B6000F0E70020EEE7C840A060A96A4903490FFA
:100B7000072902D0C840E06070BD0321FFF7FCFAEE
:100B8000F9E700000080084000127A000C4908686C
:100B9000C869C20F4868400AC007C00F0ED0094894
:100BA000002A0BD18869C00D0007000F00D110206A
:100BB0008969044A4902890F5043C84070470000C0
:100BC0000080084000127A001FB541090A4A8900D6
:100BD0008A1800212E2800D10221C006C00E1268FA
:100BE000032383401A40C24054186846FFF798FF19
:100BF000029804B0E04010BD38800840F0B5084FBE
:100C00007C6AFD6A3E6B84438D439643002B02D081
:100C100004430D4316437C62FD623E63F0BD000059
:100C2000008008401FB50024092002900094019420
:100C30000223224606210394802000F091F83220FE
:100C400001F0FEFC06480223007802900094019413
:100C5000002206210394802000F082F81FBD0000CE
:100C60005A0000201FB5002409200290009401942E
:100C70000223224606210394802000F0ABF83220A4
:100C800001F032FD0648022300780290009401949E
:100C9000002206210394802000F09CF81FBD000074
:100CA000660000201FB500211220009101910A4624
:100CB0000391029001230621802000F051F81FBD0E
:100CC0001FB500211220009101910A460391029064
:100CD00001230621802000F07DF81FBD401EFDD2BB
:100CE00070470000044A03E00021491C9142FCD3F4
:100CF000401EF9D270470000E02E000003E0002102
:100D0000491C0B29FCD3401EF9D27047002A026807
:100D100001D00A4300E08A4302607047002A42681B
:100D200001D00A4300E08A4342607047002A08D09D
:100D3000012A09D082688A438260C2688A43C260FD
:100D4000704782680A43F7E7C2680A43C260826854
:100D50008A4382607047C069084000D00120704714
:100D6000FFB585B01A4F96463A789C460E9B0F9970
:100D7000109D119800930492019103900024302655
:100D80000295634672460699059801F089FDE007D1
:100D900013D000233A783979304601F0ABF938792D
:100DA000641C3018C6B2E4B20420FFF797FF38790C
:100DB000854204D9281AC5B2E9E74023EAE740236F
:100DC0003A780021302001F0A5FA09B0F0BD00000A
:100DD00058000020FFB585B01A4F96463A789C46D9
:100DE0000E9B0F99109D119800930492019103900E
:100DF000002430260295634672460699059801F054
:100E00008DFDE00713D000233A783979304601F0A0
:100E10008FF93879641C3018C6B2E4B20420FFF7A9
:100E20005DFF3879854204D9281AC5B2E9E7402325
:100E3000EAE740233A780021302001F089FA09B02E
:100E4000F0BD000064000020F8B5104D104E114FA9
:100E500028783070002420463030C0B2002101F0E4
:100E6000E3FD641C402CF6DB00233A78402130205F
:100E700001F05EF96D2001F037FC07480078012889
:100E800001D00228E4D1401EF8BD00006900002016
:100E9000650000206400002066000020F8B5124EB6
:100EA000124F134D30783870002420463030C0B2D5
:100EB000002101F071FD641C402CF6DB0D4800237D
:100EC00002784021302001F015F9342001F0B8FB00
:100ED0002C78362001F0B4FB2878002CE2D00028D2
:100EE000E0D02046F8BD00005D0000205900002041
:100EF0005A00002058000020F8B5114E114F124D35
:100F000030783870002420463030C0B2002101F023
:100F100043FD641C402CF6DB0C4800230278402182
:100F2000302001F0E7F8342001F08AFB2C783620DD
:100F300001F086FB2878002CE2D00028E0D0F8BD34
:100F40005D000020590000205A00002058000020B9
:100F50001FB500210820009101910A4603910290DB
:100F6000012306218020FFF7FBFE1FBD1FB50021D6
:100F70000820009101910A46039102900123062165
:100F80008020FFF727FF1FBD024801680029FCD021
:100F9000704700005400002070B500242048FFF77F
:100FA000A1FE214D00201F4A696C03E00B5C135524
:100FB000401C641CAB699842F8D3907C0A243038FA
:100FC000D37C604330381818E861507D937D303809
:100FD0006043303818182862107E537E30386043E2
:100FE000303818186862D07E137F30386043283854
:100FF0001818A862907FD37F3038604330381818B3
:101000002032E862507893783038604330381818CE
:10101000286300210348FFF7E0F80020A86170BDB5
:10102000B80B00007C1400200400002010B5054817
:10103000FFF758FE044CA169606CFFF7CEF8002062
:10104000A06110BDAC0D000004000020704700003E
:101050000548064902E08A68272A03D0401EFAD1D3
:10106000012070470020704700366E0100A1064045
:10107000704700000349C2B20A600A69D205FCD574
:1010800070470000000004407047000000B50C4AA3
:1010900085B000211070517001910291039104916B
:1010A0000B46024600910521002001F0F9FB0022C9
:1010B00040231146302001F01DF805B000BD0000AE
:1010C0005800002000B50C4A85B000211070517006
:1010D00001910291039104910B4602460091052172
:1010E000002001F01BFC002240231146302001F0BB
:1010F0001FF805B000BD00006400002010B50B4CC7
:1011000086B021780020049101900290039003465C
:1011100001220090092101F0C3FB40232278002125
:10112000302000F0E7FF06B010BD0000580000209E
:1011300010B50B4C86B021780020049101900290EC
:101140000390034601220090092101F0E7FB4023B0
:1011500022780021302000F0EBFF06B010BD000027
:101160006400002070470000F0B539491020C860C5
:10117000384A012010603849086B4025284308632D
:101180003648002344158668272EFCD100E04460D1
:101190004668B605FBD500E043604668B605FBD45B
:1011A0001360486A03229202904348624868012211
:1011B000D202104348608868C008C007FBD0486866
:1011C000C008C000C01C4860486B4007400F03289F
:1011D000FAD1234A1068C008C000401C10600B629E
:1011E0004868A0434860086896153043086048681E
:1011F00017153843486088688008C007FBD0086B23
:10120000A84308630868B0430860032000068861AB
:1012100048682043486088684008C007FBD01068D1
:10122000C008C000801C10600B624868C008C00085
:10123000401C4860486B4007400F0128FAD11068F5
:101240001021084310601068090208431060F0BDC7
:1012500000810840008308400080084000A106404B
:101260000002084070B52A4D2021284600F05CF8A5
:10127000002813D0284600F0ABF8264C024621681F
:10128000254800684318491C21601A70216880298C
:1012900004D12168FEF7A1FF00202060022128462A
:1012A00000F047F800281CD08021284600F03CF8C8
:1012B000002816D0194C2068002812D0184802685F
:1012C0001178521C0260284600F085F82168491EFA
:1012D00021602068002804D100220221284600F065
:1012E0006FF80421284600F024F800280ED0FF21D2
:1012F0000131284600F018F8002807D00022042108
:10130000284600F05DF807490120086070BD000024
:10131000000004401C0000204800002000000020C5
:10132000500000204C0000200069084000D001203F
:101330007047C068084000D00120704770B504466F
:101340000D46C8888988626808432989184B1A4065
:101350001143084369890843606001208007844283
:1013600006D11820FFF730FC2968FEF705FF606200
:101370001048844206D11A20FFF726FC2968FEF7A0
:10138000FBFE60620C48844206D11C20FFF71CFC67
:101390002968FEF7F1FE60620848844206D11E20EB
:1013A000FFF712FC2968FEF7E7FE606270BD0000DF
:1013B000FCE0FFFF0000044000100040001004406B
:1013C000002AC26801D00A4300E08A43C260704725
:1013D000006880B270470160704710238B404168FD
:1013E000002A01D0194300E0994341607047000092
:1013F00070B5254C0122D1032046FFF787FC01225E
:1014000091032046FFF782FC0122D1022046FFF71C
:101410007DFC012291022046FFF778FC1B4C012243
:1014200002212046FFF772FC012204212046FFF72B
:101430006DFC012208212046FFF768FC00F01AFC31
:10144000134D08202870FFF783FD372001F0F8F8CE
:1014500010A000F0CFF80A20FFF740FC104C2078D5
:1014600028700120FFF712FEFFF71CFCFFF7DAFBE4
:10147000322001F0E5F80B492078087000F092FB6B
:10148000FFF73CFE70BD000000000B4000600B4009
:101490005C0000203131313131313131310A00000D
:1014A0005A0000200400002070B5254C0122D10212
:1014B0002046FFF72BFC012291022046FFF726FC75
:1014C000204D0122D1032846FFF720FC01221146BE
:1014D0001D48FFF71BFC0122160231462846FFF784
:1014E00015FC012231462046FFF710FC0122510273
:1014F0002046FFF70BFC00F025FC144C0820207060
:10150000FFF734FD372001F0EFF811A000F072F87A
:101510000A20FFF7E3FB114D287820700220FFF727
:10152000D1FDFFF7CDFBFFF79DFB322001F0DCF88A
:101530000B492878487000F04DFBFFF7F9FD70BDAE
:1015400000400B4000200B4000600B406800002072
:101550003131313131313131310A00006600002042
:10156000040000203EB50F20212100244022000469
:1015700049020123FFF742FBFFF76AFD002800D074
:10158000FEE7002220211848FFF7D0FB0622102199
:101590000020FFF7D9F9062220210020FFF7D4F917
:1015A000E12040020090FF2001940294013069463E
:1015B0008880CC800C814C810C4C2046FFF7BEFE0D
:1015C0000B4AA1011160012211462046FFF7F8FEE7
:1015D000012200212046FFF700FF0122114620468C
:1015E000FFF7FBFE3EBD000000000B400000044082
:1015F00000E100E00FB410B503A9044B044A0298BF
:1016000000F052F810BC08BC04B018479D1B000045
:10161000700000200FB41CB50246002007AC002962
:101620000BD0491E01910092064B6A46214606984E
:1016300000F03AF8009A002111701CBC08BC04B0FC
:10164000184700001D1B00000FB410B504A9074B7C
:1016500002AA039800F028F8044602A9002000F02E
:1016600068FA204610BC08BC04B01847331B0000C1
:1016700030B47446641E2578641CAB4200D21D460B
:10168000635D5B00E31830BC184702E008C8121F16
:1016900008C1002AFAD170477047002001E001C15B
:1016A000121F002AFBD17047FFB591B00F460546C7
:1016B000002606E025280AD0149A139990476D1C3D
:1016C000761C28780028F5D1304615B0F0BD0024EE
:1016D00000940121F34A029400E004436D1C2B782E
:1016E0000846203B98401042F7D128782A280ED08F
:1016F000022128780246303A092A15D8009A0A238E
:101700005A43303A80180C436D1C0090F1E701CF2A
:101710000090002805DA012040030443009840426D
:101720000090022004436D1C28782E2815D1042037
:10173000044368786D1C2A280AD101CF6D1C0290E1
:101740000BE002990A225143303940186D1C029077
:101750002878014630390929F3D928786C2810D027
:1017600006DC4C281AD068280ED06A2817D104E06D
:10177000742813D07A2812D110E0012040050443C8
:101780000CE00121090501E0032109050C436978FA
:10179000814203D10120000524186D1C6D1C28789E
:1017A00003906E281ED00CDC632831D004DC0028A6
:1017B0008AD0582811D1B2E064287BD069280CD196
:1017C00078E073282DD004DC6F2870D0702804D105
:1017D000A7E075286CD078286BD0149A139990479D
:1017E000761C62E06002400F022807D003280AD06E
:1017F000042838680AD006603F1D56E03868F117A3
:1018000006604160F8E738680680F5E70670F3E7A0
:101810003878694608740020487404A803900120B1
:1018200003E0386803900020C0433F1D61070FD5D7
:10183000002101E00199491C029A0191914213DAB9
:101840008142F7DB019A0399895C0029F2D10BE010
:10185000002101E00199491C01918142FADB019AC2
:101860000399895C0029F5D101990098139A401ACF
:1018700000902146149B00F03BF90199801946180D
:1018800007E0039803990078491C0391149A13996F
:1018900090470198401E0190401CF2D12146149BB4
:1018A000139A009800F014F986196D1C09E741E0BD
:1018B00033E034E00A200021049005916002410FDA
:1018C000022905D001CFC2179446032905D007E0AD
:1018D000FF1DFF08FF0003CF06E000B2C2179446C9
:1018E000042902D140B2C1178C46002261469445BA
:1018F00006DA0A460021404291418C462D2102E041
:10190000210504D52B216A461176012103E0E10768
:1019100001D02021F7E7019154E00A200BE01020CC
:1019200009E01020049000210420044308200591C0
:10193000029003E008200021059104906002410F0D
:10194000022905D001CF00229446032906D006E0E3
:10195000FF1DFF08FF0003CF8C4603E080B204297F
:1019600000D1C0B20021019121072BD50399702924
:1019700006D0049A1021059B4A401A4305D00EE078
:1019800040216A461176012108E06146014306D0F4
:1019900030216A4611760399517602210191049A09
:1019A0000821059B4A401A430CD16146014301D1ED
:1019B000610707D530216A4611760121019102990C
:1019C000491E02910399582904D037A103910FA908
:1019D0000F910DE039A1F9E76146059B049AFEF7E6
:1019E0001AFC039B8C469B5C0F9A521E0F9213703D
:1019F00061460143F0D10F9807A9081A20300390DF
:101A0000600704D5012000048443029801E001200E
:101A100002900399884201DD401A00E0002041183D
:101A20000290019809180098401A0090E00306D42B
:101A30002146149B139A009800F05AF8861900204A
:101A4000049008E006A9085C149A1399904704983A
:101A5000401C761C049001998842F3DBE0030CD50E
:101A60002146149B139A009800F042F8861904E06E
:101A7000149A302013999047761C0299481E0290C0
:101A80000029F5DC08E00F980F990078491C0F91A8
:101A9000149A13999047761C0399481E03900029C5
:101AA000F1DCFBE6092801003031323334353637BA
:101AB000383961626364656600000000303132339A
:101AC000343536373839414243444546000000003A
:101AD000F8B5044600251E461746880404D405E0E0
:101AE00039462020B0476D1C641EF9D52846F8BD44
:101AF000FFB50446002581B01E46C80301D5302736
:101B000000E02027880404D505E038460399B04753
:101B10006D1C641EF9D5284605B0F0BD4A68002A40
:101B200006D00A68531C0B6010704868401E48605D
:101B300070470A68531C0B601070704770B50646FA
:101B40000020094C7D25ED00A060304600F05AF8D9
:101B5000A178480705D5A068A84204D2401CA0601F
:101B6000F3E7C807F1D070BD5800002070B50646F5
:101B70000020094C7D25ED00A060304600F05EF8A5
:101B8000A178480705D5A068A84204D2401CA060EF
:101B9000F3E7C807F1D070BD6400002010B5FFF76F
:101BA00069FA10BD70B50A4D3024204600F048FD9A
:101BB000A878072802D02018C4B2F6E7A41CE0B227
:101BC00000F03EFDA8784006400E687170BD000030
:101BD0005800002070B50A4D3024204600F084FDE6
:101BE000A878072802D02018C4B2F6E7A41CE0B2F7
:101BF00000F07AFDA8784006400E687170BD0000C4
:101C00006400002010B50446FF210D2000F0C4FE42
:101C10002146002000F0C0FE074C0D2000F010FD12
:101C2000A078C007F9D0FF210D2000F0B5FE0320F9
:101C300000F006FD10BD00005800002010B504465D
:101C4000FF210D2000F0F0FE2146002000F0ECFE08
:101C5000074C0D2000F048FDA078C007F9D0FF2107
:101C60000D2000F0E1FE032000F03EFD10BD00005D
:101C70006400002010B500F0B5F9AE210F2000F08F
:101C80008BFE0F2000F0DCFC0821052000F084FE14
:101C9000052000F0D5FC0420FFF730F800210520D6
:101CA00000F07AFE052000F0CBFC6121062000F058
:101CB00073FE062000F0C4FC214CFF210D2000F033
:101CC0006BFE0D2000F0BCFCA0784028F5D0C0B21F
:101CD000802826D0E0210E2000F05EFEEE210F20AD
:101CE00000F05AFE2121052000F056FE0020E07091
:101CF0005021032000F050FE0021042000F04CFE93
:101D00000121002000F048FE0420FEF7F7FFFF212C
:101D10000D2000F041FE00F039F9FA20FEF7EEFF49
:101D200010BDE0210E2000F037FEAE210F2000F0A4
:101D300033FE0521084600F02FFE2020D7E70000E3
:101D40005800002010B500F08BF9AE210F2000F0F4
:101D50006BFE0F2000F0C8FC0821052000F064FE97
:101D6000052000F0C1FC0420FEF7C8FF002105207B
:101D700000F05AFE052000F0B7FC6121062000F0BB
:101D800053FE062000F0B0FC214CFF210D2000F096
:101D90004BFE0D2000F0A8FCA0784028F5D0C0B282
:101DA000802826D0E0210E2000F03EFEEE210F20FC
:101DB00000F03AFE2121052000F036FE0020E07000
:101DC0005021032000F030FE0021042000F02CFE02
:101DD0000121002000F028FE0420FEF78FFFFF21E4
:101DE0000D2000F021FE00F0E7F8FA20FEF786FF54
:101DF00010BDE0210E2000F017FEAE210F2000F0F4
:101E000013FE0521084600F00FFE2020D7E7000052
:101E10006400002010B5C20980232B49002A0A6AF9
:101E200001D01A4300E09A430A624006400E43067E
:101E30004022002B0B6A01DA134300E093430B624C
:101E40008006800E83062022002B0B6A01DA1343E2
:101E500000E093430B62C006C00EC2061023002AA6
:101E60000A6A01DA1A4300E09A430A620007000F87
:101E700002070823002A0A6A01DA1A4300E09A439B
:101E80000A624007400F43070422002B0B6A01DA65
:101E9000134300E093430B628007800F8207022305
:101EA000002A0A6A01DA1A4300E09A430A62C0076C
:101EB000086A02D00122104301E040084000086295
:101EC0000520FEF70BFF10BD00200B4010B5C20926
:101ED00080232C49002A0A6A01D01A4300E09A4361
:101EE0000A624006400E42064023002A0A6A01DACE
:101EF0001A4300E09A430A628106890E8B0620226B
:101F00002148002B036A01DA134300E09343036284
:101F1000C906C90ECA061023002A026A01DA1A434A
:101F200000E09A4302620907090F0A070823002A02
:101F3000026A01DA1A4300E09A4302624907490F34
:101F40004A070423002A026A01DA1A4300E09A438E
:101F500002628907890F8B070222002B036A01DACC
:101F6000134300E093430362C907016A02D00122D0
:101F7000114301E04908490001620520FEF7AEFE69
:101F800010BD000000000B4000400B4010B50520C4
:101F900000F056FB074C0820A1780143052000F013
:101FA000FBFC0420FEF7AAFEA178052000F0F4FC5B
:101FB00010BD00005800002010B5052000F094FB73
:101FC000074C0820A1780143052000F02DFD0420D6
:101FD000FEF794FEA178052000F026FD10BD00005C
:101FE00064000020F8B51C4D286A0127FF03B843A0
:101FF00028620520FEF772FE286A29150843286228
:102000000520FEF76BFE154C206A0821084320626C
:102010000520FEF763FE206A042630432062052077
:10202000FEF75CFE0420FEF769FE206AB0432062E2
:102030000520FEF753FE0420FEF760FE206A3043C1
:1020400020620520FEF74AFE286A384328620520F0
:10205000FEF744FEF8BD000000000B4000600B409E
:1020600070B51C4C206A0126F602B04320620520A0
:10207000FEF734FE1848016A01221143016205206F
:10208000FEF72CFE206A6115084320620520FEF74A
:1020900025FE206AA515284320620520FEF71EFEB6
:1020A0000420FEF72BFE206AA84320620520FEF7DD
:1020B00015FE0420FEF722FE206A28432062052038
:1020C000FEF70CFE206A304320620520FEF706FE74
:1020D00070BD000000400B4000600B4010B50321B4
:1020E0000843FFF72BFD10BD10B503210843FFF790
:1020F0003DFD10BD70B50D4601461C46164601203B
:1021000000F04AFC2946022000F046FC314604203B
:1021100000F042FC054D902069780143032000F057
:102120003BFCE8782043FFF7D9FF70BD5800002042
:1021300070B50D4601461C461646012000F074FCA1
:102140002946022000F070FC3146042000F06CFCAF
:10215000054D902069780143032000F065FCE87884
:102160002043FFF7C1FF70BD6400002094B0282118
:1021700006A8FEF732F80021012010911191800489
:1021800001230A461291FEF739FD01244B4D240329
:10219000002221462846FEF7B9FD012221462846A5
:1021A000FEF7BCFD474C46486064FFF7DBF9FEF7DD
:1021B0006DFC01202064FFF71BF9FFF775F900247F
:1021C00010AE11AFFEF76AFEA500705101463EA0A9
:1021D000FFF710FA3220FEF785FDFEF78DFE7851ED
:1021E00001463CA0FFF706FA3220FEF77BFDFEF722
:1021F0002BFE2A4612ADA850014639A0FFF7FAF986
:102200003220FEF76FFD641CDCD02E480021C16334
:102210008163012109032948FEF79DFD01282AD089
:102220002F46284D0024A00011AA10A93B5812588F
:102230000958286B461C2E63029003A80EC0E96A59
:10224000A86A0191009029461C310EC90120FEF7B1
:10225000BDF90646641CE6D0012109031748FEF7C4
:102260007AFD012824D03046FEF79AFB1F4920480A
:10227000FDF7B3FFA3E72F46124D0024A00011AADB
:1022800010A93B5812580958286B461C2E6302901F
:1022900003A80EC0E96AA86A0191009029461C3182
:1022A0000EC90120FEF71CF80646641CE6D0D3E7F1
:1022B0000F4910A0FFF79EF9D8E7000000400B403F
:1022C000FC1300200400002058203A2025780D0A35
:1022D0000000000059203A2025780D0A0000000077
:1022E0005A203A2025780D0A0000000088130000CB
:1022F0007400002025730D0A0000000010B50721AE
:102300000843FFF71BFC10BD10B507210843FFF77A
:102310002DFC10BD70B50D4601461C461646012029
:1023200000F03AFB2946022000F036FB314604203B
:1023300000F032FB054D102069780143032000F0C6
:102340002BFBE8782043FFF7D9FF70BD5800002031
:1023500070B50D4601461C461646012000F064FB90
:102360002946022000F060FB3146042000F05CFBAF
:10237000054D102069780143032000F055FBE878F3
:102380002043FFF7C1FF70BD6400002010B5544C1E
:1023900001282BD0012280212046FEF7B7FC012224
:1023A00040212046FEF7B2FC012220212046FEF704
:1023B000ADFC012210212046FEF7A8FC01220821D5
:1023C0002046FEF7A3FC012204212046FEF79EFCD6
:1023D000012202212046FEF799FC012211462046E7
:1023E000FEF794FC0520FEF779FC10BD0022802149
:1023F0002046FEF78BFC002240212046FEF786FC9B
:10240000002220212046FEF781FC002210212046D8
:10241000FEF77CFC002208212046FEF777FC002214
:1024200004212046FEF772FC002202212046FEF71E
:102430006DFC002201212046FEF768FC002280216D
:102440002046FEF773FC002240212046FEF76EFC7A
:10245000002220212046FEF769FC002210212046A0
:10246000FEF764FC002208212046FEF75FFC0022F4
:1024700004212046FEF75AFC002202212046FEF7E6
:1024800055FC002201212046FEF750FC012280214C
:102490002046FEF743FC012240212046FEF73EFC89
:1024A000012220212046FEF739FC0122102120467E
:1024B000FEF734FC012208212046FEF72FFC012202
:1024C00004212046FEF72AFC012202212046FEF7C5
:1024D00025FC012211462046FEF720FC82E7000081
:1024E00000200B4070B5544D544C01282BD00122D4
:1024F00080212846FEF70AFC012240212846FEF7EB
:1025000005FC012220212046FEF700FC01221021BB
:102510002046FEF7FBFB012208212046FEF7F6FBD2
:10252000012204212046FEF7F1FB01220221204670
:10253000FEF7ECFB012211462046FEF7E7FB0520E3
:10254000FEF7CCFB70BD002280212846FEF7DEFBA3
:10255000002240212846FEF7D9FB002220212046F8
:10256000FEF7D4FB002210212046FEF7CFFB00220D
:1025700008212046FEF7CAFB002204212046FEF770
:10258000C5FB002202212046FEF7C0FB00220121EC
:102590002046FEF7BBFB002280212846FEF7C6FB43
:1025A000002240212846FEF7C1FB002220212046C0
:1025B000FEF7BCFB002210212046FEF7B7FB0022ED
:1025C00008212046FEF7B2FB002204212046FEF738
:1025D000ADFB002202212046FEF7A8FB00220121CC
:1025E0002046FEF7A3FB012280212846FEF796FB3A
:1025F000012240212846FEF791FB0122202120469E
:10260000FEF78CFB012210212046FEF787FB0122FA
:1026100008212046FEF782FB012204212046FEF716
:102620007DFB012202212046FEF778FB01221146A4
:102630002046FEF773FB82E700000B4000400B4092
:10264000F8B5274C0546216A0122D2039143216245
:102650000520FEF743FB2846FFF7DCFB6420FEF76E
:102660004DFB204D286A0226B04328620520FEF764
:1026700035FB206AB702B84320620520FEF72EFB27
:10268000206A384320620520FEF728FBFF20FFF771
:10269000C1FB6420FEF732FB0120FFF777FE286ABA
:1026A000304328620520FEF719FB206A7503A84312
:1026B00020620520FEF712FB00F06AF8206A28432A
:1026C00020620520FEF70AFB206A690008432062A9
:1026D0000520FEF703FB0020FFF758FEF8BD0000C1
:1026E00000000B4000600B40F8B5274C0546216AFE
:1026F0000122D202914321620520FEF7EFFA28461B
:10270000FFF7E4FB6420FEF7F9FA204D286AA615CE
:10271000B04328620520FEF7E1FA286AF701B843C2
:1027200028620520FEF7DAFA286A38432862052075
:10273000FEF7D4FAFF20FFF7C9FB6420FEF7DEFAAC
:102740000120FFF7CFFE286A304328620520FEF7FC
:10275000C5FA206A2515A84320620520FEF7BEFAB7
:1027600000F052F8206A284320620520FEF7B6FAEE
:10277000206A6900084320620520FEF7AFFA0020B6
:10278000FFF7B0FEF8BD000000400B4000200B40FA
:1027900010B51B48002181701A49CA69120601D57B
:1027A00080228270CA69520602D5827840328270D5
:1027B000CA69920602D5827820328270CA69D2062E
:1027C00002D5827810328270CA69120702D58278E7
:1027D00008328270CA69520702D58278121D82704F
:1027E000CA69920702D58278921C8270C969C907AA
:1027F00002D08178491C81700520FEF76FFA10BD68
:102800005800002000200B4010B51C4800218170AA
:102810001B49CA69120601D580228270C96949061E
:1028200002D58178403181701649CA69920602D575
:10283000827820328270CA69D20602D5827810323C
:102840008270CA69120702D5827808328270CA691A
:10285000520702D58278121D8270CA69920702D58A
:102860008278921C8270C969C90702D08178491C9C
:1028700081700520FEF732FA10BD000064000020D0
:1028800000000B4000400B4010B507210843FFF744
:1028900055F910BD10B507210843FFF767F910BDC2
:1028A000FFB581B00BACF0CC0146102000F074F8FD
:1028B0001120029900F070F81220039900F06CF8D2
:1028C0001320049900F068F814200A9900F064F8C5
:1028D0002146152000F060F82946162000F05CF82B
:1028E0003146172000F058F81021012000F054F86C
:1028F0000821022000F050F83946042000F04CF87E
:10290000054CD02061780143032000F045F8E078C1
:10291000FFF7BAFF05B0F0BD58000020FFB581B049
:102920000BACF0CC0146102000F07EF8112002998B
:1029300000F07AF81220039900F076F81320049939
:1029400000F072F814200A9900F06EF82146152064
:1029500000F06AF82946162000F066F83146172084
:1029600000F062F81021012000F05EF8082102203A
:1029700000F05AF83946042000F056F8054CD020F3
:1029800061780143032000F04FF8E078FFF782FF01
:1029900005B0F0BD64000020F3B5214C81B0216A80
:1029A00005460127FF03B94321620520FEF796F98A
:1029B0002846FFF72FFA1B4D286A02218843286218
:1029C0000520FEF78BF9206A3E11B04320620520F6
:1029D000FEF784F9206A304320620520FEF77EF975
:1029E0000298FFF717FA286A022108432862052097
:1029F000FEF774F9206AB04320620520FEF76EF9F5
:102A0000206A304320620520FEF768F9206A3843C7
:102A100020620520FEF762F9FF20FFF7FBF9FEBDFB
:102A200000000B4000600B40F3B5214D81B0296AD6
:102A300004460127FF02B94329620520FEF74EF93B
:102A40002046FFF743FA1B4C206AA11588432062F9
:102A50000520FEF743F9206A3E01B04320620520BD
:102A6000FEF73CF9206A304320620520FEF736F974
:102A70000298FFF72BFA206AA1150843206205206F
:102A8000FEF72CF9206AB04320620520FEF726F9F4
:102A9000206A304320620520FEF720F9286A384377
:102AA00028620520FEF71AF9FF20FFF70FFAFEBD96
:102AB00000400B4000200B40253032782530327822
:102AC00032642530327825303278326425303278DD
:102AD0002530327832302530327825303278336103
:102AE0002530327825303278336125303278253000
:102AF0003278323232633061000000001C2B00005B
:102B000000000020740000008A160000902B0000D6
:102B100074000020641600009A16000000000000F7
:102B200000000000000000000000000000000000A5
:102B30000000000000000000000000000000000095
:102B40000000000000000000000000000000000085
:102B50000000000000000000000000000000000075
:102B60000100000000000000000000000000000064
:102B70000000000000000000000000000000000055
:102B80000000000000000000000000000000000045
:04000005000000C136
:00000001FF
