:020000040000FA
:1000000018020020C10000009504000085040000D3
:10001000FFFFFFFFFFFFFFFFFFFFFFFFFFFFFFFFF0
:10002000FFFFFFFFFFFFFFFFFFFFFFFF2D060000A9
:10003000FFFFFFFFFFFFFFFFD50400005906000090
:100040003501000071050000350100003501000098
:1000500035010000350100003501000035010000C8
:1000600035010000FFFFFFFF3501000035010000F2
:10007000350100003501000035010000FFFFFFFFE2
:10008000FFFFFFFF350100003501000035010000D2
:100090003501000035010000350100003501000088
:1000A0003501000035010000350100003501000078
:1000B0003501000035010000350100003501000068
:1000C0001D4880471D4880471D4800471D4801695D
:1000D000002908D14169002905D18169002902D18F
:1000E000C169002909D01848C1680901090D002912
:1000F0000ED005290CD006290AD0BFF34F8F134824
:100100001349016013491248C860BFF34F8FFEE7DF
:100110000E4801680E48884200D070470E480F49CB
:1001200001600A480E4901607047FEE7FEE7FEE7FE
:10013000FEE7FEE7FEE70000CD0000005D060000E0
:100140006501000000030840800108400000002015
:100150000400FA0500ED00E0008108400100000005
:10016000000000000348854600F01CF800480047E6
:100170002D0D00001802002030B50B46014600206E
:100180002022012409E00D46D5409D4205D31D469D
:100190009540491B2546954040191546521E002D95
:1001A000F1DC30BD064C0125064E05E0E36807CCC6
:1001B0002B430C3C98471034B442F7D3FFF7D6FFDB
:1001C000340E0000540E0000F0B596460A4613495E
:1001D000C000461800230025FF2098402C461042FE
:1001E00016D00020012199408C461146C140674637
:1001F000394206D087000F21B9400D437146B940FE
:100200000C43401C0828F0D33068A84320433060DA
:100210000833361D082BDEDDF0BD00002020024033
:1002200003498968014201D00120704700207047CE
:100230000080084070B5184D0446686B4607760F7D
:1002400000F02EF815492060330000F09FFB0814E1
:1002500005070714140E1114606000E06160296A3C
:100260006068052909D3400908E00120C003F3E7CD
:100270007D200002F0E70020EEE7C840A060A96AF8
:100280004903490F072902D0C840E06070BD03212F
:10029000FFF772FFF9E700000080084000127A00C3
:1002A0000C490868C869C20F4868400AC007C00FF7
:1002B0000ED00948002A0BD18869C00D0007000F35
:1002C00000D110208969044A4902890F5043C8406F
:1002D000704700000080084000127A001FB54109F5
:1002E0000A4A89008A1800212E2800D10221C0065E
:1002F000C00E1268032383401A40C2405418684657
:10030000FFF798FF029804B0E04010BD3880084025
:10031000F0B5084F7C6AFD6A3E6B84438D4396437B
:10032000002B02D004430D4316437C62FD623E6302
:10033000F0BD000000800840002A026801D00A4396
:1003400000E08A4302607047F0B50024254623464A
:10035000CE0706D05E001746B7403C430327B740A0
:100360003D4349085B1C102BF2D34169A94341610D
:10037000416921434161F0BD002A08D0012A09D01A
:1003800082688A438260C2688A43C260704782681A
:100390000A43F7E7C2680A43C26082688A43826000
:1003A0007047000070B50D46114900014418002047
:1003B0002121490201230246FFF7AAFF227AE188A0
:1003C0002079FFF701FFA27BA189A07AFFF7FCFE4D
:1003D0002946206800F056FA01220021206800F02A
:1003E00096FA01221146206800F091FA70BD0000D3
:1003F000E00D0000F8B5054613481349465D680056
:1004000010310C5A08460D38475DB0000C310858C1
:100410000090304600F085FA3A4621463046FFF714
:10042000D3FE284600F012F8214602220098FFF77A
:10043000A3FF214601220098FFF786FF21460122F3
:100440000098FFF779FFF8BDAC0D0000044A4100A9
:10045000515A103A105C80001C32105841627047AB
:10046000BC0D00000649095C8A0005491C31895809
:100470000A6A034B40001033185A42400A62704720
:10048000AC0D0000024801680029FCD07047000054
:1004900008000020704700000548064902E08A680D
:1004A000272A03D0401EFAD1012070470020704750
:1004B00000366E0100A10640054801214160090394
:1004C00042688A43FCD101680029FCD170470000D2
:1004D00000A1064070470EB5E12040020090FF20C9
:1004E0000130694688800020C88008814881FFF774
:1004F00059FF0EBD03498A6802239A434000024314
:100500008A60704700A0064005490028886802D02C
:100510000122104301E0400840008860704700005D
:1005200000A0064010B5FFF7C7FF012000F050F80B
:10053000012000F037F81020FFF772FE0028FAD0F3
:100540000120FFF7D7FF0121084600F01FF80F2018
:10055000000200F047F810BD014800687047000035
:1005600000A006400148C068C0B2704700A0064025
:1005700010B5FFF7F7FFC00702D00349012008605C
:100580000020FFF76FFF10BD00000020044A002983
:10059000116901D0014300E08143116170470000FF
:1005A00000A00640084A082300280849906805D0A2
:1005B000184390608868C006FCD5704798439060E7
:1005C0008868C006FCD4704700A006400080084040
:1005D00003498A6820239A43400102438A60704796
:1005E00000A00640034A9168034B19400143916003
:1005F0007047000000A00640FFF0000010B5054C59
:100600002021204600F038F90028F9D0204600F0DB
:100610007BF910BD000004400349C2B20A600A69B8
:10062000D205FCD570470000000004407047000070
:1006300010B50024074800F075FBC1B208463038F9
:10064000092804D80A2044436418303CF2E72046C5
:1006500010BD00001000002070470000F0B53949BF
:100660001020C860384A012010603849086B4025C6
:10067000284308633648002344158668272EFCD19A
:1006800000E044604668B605FBD500E0436046687C
:10069000B605FBD41360486A032292029043486275
:1006A00048680122D202104348608868C008C00729
:1006B000FBD04868C008C000C01C4860486B4007B9
:1006C000400F0328FAD1234A1068C008C000401C1C
:1006D00010600B624868A043486008689615304374
:1006E0000860486817153843486088688008C00764
:1006F000FBD0086BA84308630868B0430860032078
:100700000006886148682043486088684008C00740
:10071000FBD01068C008C000801C10600B624868E5
:10072000C008C000401C4860486B4007400F0128CB
:10073000FAD11068102108431060106809020843BC
:100740001060F0BD00810840008308400080084030
:1007500000A106400002084070B50D49FFF70CFDEE
:100760000846E1210901FFF707FD0E460546304620
:100770003C21FFF701FD044630463C21FFF7FCFC1D
:100780000B462246294603A000F0F0F870BD000099
:100790008051010054696D653A20253032753A2543
:1007A0003032753A253032750D00000070B51C48A6
:1007B00000F0DCF81BA000F0D9F820A000F0D6F87B
:1007C000FFF736FF05461728FAD801461CA000F0AF
:1007D000CDF81DA000F0CAF818A000F0C7F8FFF788
:1007E00027FF04463B28FAD8014615A000F0BEF8C2
:1007F0001BA000F0BBF811A000F0B8F8FFF718FF3D
:1008000006463B28FAD801460DA000F0AFF8E120DB
:10081000000145433C2044432819801970BD000065
:10082000F00D00000D0A2020506C656173652053A7
:10083000657420486F757273000000000D0A000097
:100840003A202025750000000D0A2020506C6561BB
:10085000736520536574204D696E7574657300006F
:100860000D0A2020506C6561736520536574205318
:1008700065636F6E647300000069084000D001205A
:100880007047000070B504460D46C88889886268C4
:1008900008432989184B1A401143084369890843C2
:1008A000606001208007844206D11820FFF716FD02
:1008B0002968FFF761FC60621048844206D11A2063
:1008C000FFF70CFD2968FFF757FC60620C48844273
:1008D00006D11C20FFF702FD2968FFF74DFC60627E
:1008E0000848844206D11E20FFF7F8FC2968FFF76C
:1008F00043FC606270BD0000FCE0FFFF00000440AC
:100900000010004000100440006880B270471023BF
:100910008B404168002A01D0194300E099434160AF
:1009200070471CB50022009201216B4601921954B8
:1009300018784904C007C00B88435978C907890B48
:1009400008430121890488439978C907490B084362
:100950000121C9048843D9780123C907090B084339
:1009600001218903FFF7D4FC1CBD00000FB410B5B2
:1009700003A9044B044A029800F024F810BC08BCF8
:1009800004B018471D0D00000C00002030B4744660
:10099000641E2578641CAB4200D21D46635D5B007B
:1009A000E31830BC184702E008C8121F08C1002A2B
:1009B000FAD170477047002001E001C1121F002AE0
:1009C000FBD17047FFB58FB00546002606E025280D
:1009D0000AD0129A119990476D1C761C287800282D
:1009E000F5D1304613B0F0BD002402940121B54A80
:1009F000009400E004436D1C2B780846203B98408F
:100A00001042F7D128782A280ED0022228780146F1
:100A10003039092916D802990A2359433039401828
:100A200014436D1C0290F1E7109802C802911090D7
:100A3000002904DA012040030443484202900220C6
:100A400004436D1C28782E2817D1042004436878AD
:100A50006D1C2A280CD110986D1C02C800911090B2
:100A60000BE000990A225143303940186D1C009068
:100A70002878014630390929F3D928786C2810D014
:100A800006DC4C281AD068280ED06A2817D104E05A
:100A9000742813D07A2812D110E0012040050443B5
:100AA0000CE00121090501E0032109050C436978E7
:100AB000814203D10120000524186D1C6D1C28788B
:100AC000692874D006DC00288BD0632827D06428DE
:100AD00006D16CE06E2808D073282CD0752878D009
:100AE000129A11999047761C5FE06002400F02282D
:100AF00009D003280DD00428109801680DD00E608D
:100B0000001D109051E01098F21701680E604A60C5
:100B1000F6E7109801680E80F2E70E70F0E7109883
:100B20006A4601781173001D10900020507303A8CD
:100B30000190012005E0109802C80191109000205A
:100B4000C04361070CD5002700E07F1C00998F424D
:100B50000FDA8742F9DB0199C95D0029F5D108E078
:100B6000002700E07F1C8742FCDB0199C95D00295A
:100B7000F8D102982146C01B0290129B119A00F0F6
:100B8000B3F88019C61907E0019801990078491C4B
:100B90000191129A119990477F1EF5D22146129B1E
:100BA000119A029800F090F886196D1C16E70A2039
:100BB0000190109901C910916102490F032900D1D8
:100BC00000B2042900D140B2002803DA40422D21AE
:100BD00003E00DE0210504D52B216A4611730121A4
:100BE00003E0E10711D02021F7E70CAF0C9114E0EE
:100BF0000A200190109901C910916102490F03293F
:100C000000D180B2042900D1C0B20021EDE70199E2
:100C1000FFF7B2FA30317F1E39700028F7D104A8EF
:100C2000C01B20300190600704D5012000048443DC
:100C3000009801E0012000900199884201DD401AEE
:100C400000E00020411800900C9809180298401A02
:100C50000290E00306D42146129B119A029800F0FC
:100C600043F8861900200D9008E003A9085C129A49
:100C7000119990470D98401C761C0D900C99884254
:100C8000F3DBE0030CD52146129B119A029800F089
:100C90002BF8861904E0129A302011999047761C9F
:100CA0000099481E00900029F5DC05E03878129A7A
:100CB0007F1C11999047761C0199481E01900029CC
:100CC000F4DC6BE709280100F8B5044600251E4650
:100CD0001746880404D405E039462020B0476D1C2F
:100CE000641EF9D52846F8BDFFB50446002581B03D
:100CF0001E46C80301D5302700E02027880404D50C
:100D000005E038460399B0476D1C641EF9D52846A6
:100D100005B0F0BD10B5FFF771FC10BD10B5FFF7C1
:100D20007BFC10BD10B5FFF7F5FF10BD0025284670
:100D3000402201232946FFF7EBFAFFF7ADFB00281D
:100D400000D0FEE70020FFF755FBFFF7C4FB0E497C
:100D500002200860FFF7E6FB0CA0FFF707FEFFF795
:100D600025FD104C60600120FFF7CEFB0EA0FFF7C1
:100D7000FDFD20680128FCD1FFF7EEFB61684018FB
:100D8000FFF7EAFC2560F4E700E100E00D0A2052DD
:100D9000544320636F6E666967757265642E2E2EEC
:100DA0002E000000000000200D0A000002020201D7
:100DB00001010103030101010C0102000040008058
:100DC000020000100200040000000B4000200B4055
:100DD00000400B4000600B400000000000000000DD
:100DE0000000044000001000060000002000060083
:100DF0000D0A3D3D3D3D3D3D3D3D3D3D3D3D3D3D86
:100E000054696D652053657474696E67733D3D3D2B
:100E10003D3D3D3D3D3D3D3D3D3D3D3D3D3D3D3D02
:100E20003D3D3D3D3D3D3D3D3D3D3D3D3D3D3D3DF2
:100E30003D3D0000540E00000000002014000000A2
:100E4000A6090000680E0000140000200402000043
:100E5000B6090000000000000000000000000000D3
:080E600000000000000000008A
:04000005000000C136
:00000001FF
