:020000040000FA
:10000000D0020020C10000005504000021040000BF
:10001000FFFFFFFFFFFFFFFFFFFFFFFFFFFFFFFFF0
:10002000FFFFFFFFFFFFFFFFFFFFFFFF09060000CD
:10003000FFFFFFFFFFFFFFFFF10500000B060000C1
:1000400035010000350100003501000035010000D8
:1000500035010000350100003501000035010000C8
:1000600035010000FFFFFFFF3501000035010000F2
:10007000350100003501000035010000FFFFFFFFE2
:10008000FFFFFFFF350100003501000035010000D2
:100090003501000035010000350100003501000088
:1000A0003501000035010000350100003501000078
:1000B0003501000035010000350100005904000041
:1000C0001D4880471D4880471D4800471D4801695D
:1000D000002908D14169002905D18169002902D18F
:1000E000C169002909D01848C1680901090D002912
:1000F0000ED005290CD006290AD0BFF34F8F134824
:100100001349016013491248C860BFF34F8FFEE7DF
:100110000E4801680E48884200D070470E480F49CB
:1001200001600A480E4901607047FEE7FEE7FEE7FE
:10013000FEE7FEE7FEE70000CD0000000D06000030
:100140006501000000030840800108400000002015
:100150000400FA0500ED00E0008108400100000005
:10016000000000000348854600F01CF800480047E6
:10017000B1090000D002002030B50B460146002036
:100180002022012409E00D46D5409D4205D31D469D
:100190009540491B2546954040191546521E002D95
:1001A000F1DC30BD064C0125064E05E0E36807CCC6
:1001B0002B430C3C98471034B442F7D3FFF7D6FFDB
:1001C000700A0000900A0000F0B596460A461349EE
:1001D000C000461800230025FF2098402C461042FE
:1001E00016D00020012199408C461146C140674637
:1001F000394206D087000F21B9400D437146B940FE
:100200000C43401C0828F0D33068A84320433060DA
:100210000833361D082BDEDDF0BD00002020024033
:1002200070B5184D0446686B4607760F00F02EF83F
:1002300015492060330000F08BFB081405070714F4
:10024000140E1114606000E06160296A606805297D
:1002500009D3400908E00120C003F3E77D20000234
:10026000F0E70020EEE7C840A060A96A4903490F03
:10027000072902D0C840E06070BD0321FFF77CFF72
:10028000F9E700000080084000127A000C49086875
:10029000C869C20F4868400AC007C00F0ED009489D
:1002A000002A0BD18869C00D0007000F00D1102073
:1002B0008969044A4902890F5043C84070470000C9
:1002C0000080084000127A001FB541090A4A8900DF
:1002D0008A1800212E2800D10221C006C00E126803
:1002E000032383401A40C24054186846FFF798FF22
:1002F000029804B0E04010BD38800840F0B5084FC7
:100300007C6AFD6A3E6B84438D439643002B02D08A
:1003100004430D4316437C62FD623E63F0BD000062
:1003200000800840002A026801D00A4300E08A43A6
:1003300002607047F0B5002425462346CE0706D05C
:100340005E001746B7403C430327B7403D4349088A
:100350005B1C102BF2D34169A943416141692143E0
:100360004161F0BD002A08D0012A09D082688A4381
:100370008260C2688A43C260704782680A43F7E7B6
:10038000C2680A43C26082688A4382607047000084
:10039000F8B5054613481349465D680010310C5AFC
:1003A00008460D38475DB0000C31085800903046C3
:1003B00000F0A0FA3A4621463046FFF705FF2846EE
:1003C00000F012F8214602220098FFF7CBFF2146E9
:1003D00001220098FFF7AEFF214601220098FFF7A7
:1003E000A1FFF8BD2C0A0000044A4100515A103AFE
:1003F000105C80001C321058416270473C0A0000BB
:100400000649095C8A0005491C3189580A6A034B70
:1004100040001033185A42400A6270472C0A00000C
:10042000024801680029FCD0704700000C00002041
:1004300010B50649064A8868401C8860904203D17E
:1004400000208860FFF7DCFF10BD000000000020E6
:1004500040420F007047000010B50221084600F02E
:100460009DF800280BD00221084600F02BF800F080
:10047000DDF9002803D00BA000F060FAFEE70821A8
:10048000032000F08BF800280BD00821032000F097
:1004900019F80A490020086002464021084800F087
:1004A00075F910BD0D0A0D0A527820427566666511
:1004B000722046756C6C0D0A0D0A000000000020C9
:1004C0000000044010B5044A936A8400001981407A
:1004D0000B43936210BD00000001094018225043F5
:1004E000084A4B6980180A691A438B691A430260EB
:1004F0000A6842604A6882600A89C96812040A432D
:10050000026170470000094070B5002422461020A7
:1005100001231146FFF7F2FE1548164D30C00126A3
:1005200004604660A9158460C16021214901016110
:1005300032460921032000F03FF80D481C300146E7
:100540001C3105604160C660402104618160C900C2
:1005500041611921C901816101460220FFF7BEFFF7
:100560000121022000F00AF803496803086070BD09
:10057000140000200000044000E100E01822504375
:10058000054A80180029016802D00122114301E0C8
:10059000490849000160704700000940054A126A95
:1005A0008300C01881400A4201D00120704700201A
:1005B000704700000001094030B50023032808D12E
:1005C0008C0701D50123DB024C0702D5012424034B
:1005D00023438500054C40198140206B002A02D03E
:1005E0001943084300E08843206330BD00010940FF
:1005F000704700000349C2B20A600A69D205FCD5FF
:10060000704700000000044070477047F0B539495A
:100610001020C860384A012010603849086B402516
:10062000284308633648002344158668272EFCD1EA
:1006300000E044604668B605FBD500E043604668CC
:10064000B605FBD41360486A0322920290434862C5
:1006500048680122D202104348608868C008C00779
:10066000FBD04868C008C000C01C4860486B400709
:10067000400F0328FAD1234A1068C008C000401C6C
:1006800010600B624868A0434860086896153043C4
:100690000860486817153843486088688008C007B4
:1006A000FBD0086BA84308630868B04308600320C8
:1006B0000006886148682043486088684008C00791
:1006C000FBD01068C008C000801C10600B62486836
:1006D000C008C000401C4860486B4007400F01281C
:1006E000FAD110681021084310601068090208430D
:1006F0001060F0BD00810840008308400080084081
:1007000000A106400002084070B504460D46C888A6
:100710008988626808432989184B1A4011430843A5
:1007200069890843606001208007844206D118204F
:10073000FFF7CAFD2968FFF71FFD60621048844279
:1007400006D11A20FFF7C0FD2968FFF715FD60628A
:100750000C48844206D11C20FFF7B6FD2968FFF73C
:100760000BFD60620848844206D11E20FFF7ACFDF5
:100770002968FFF701FD606270BD0000FCE0FFFF2B
:10078000000004400010004000100440002A4268AD
:1007900001D00A4300E08A434260704710238B4037
:1007A0004168002A01D0194300E099434160704735
:1007B0003EB50024012021210004490201232246E4
:1007C000FFF79CFD002220211648FFF7CBFD0622F3
:1007D00010210020FFF7F8FC062220210020FFF75F
:1007E000F3FCE12040020090FF20019402940130CC
:1007F00069468880CC800C814C810B4C2046FFF7E9
:1008000083FF012280212046FFF7C0FF0122002143
:100810002046FFF7C3FF012211462046FFF7BEFF27
:100820003EBD000000000B4000000440094948683C
:10083000020C0948012A406806D049684122090C87
:10084000511A814202D103E0002801D000207047F4
:100850000120704740000940000000200B49496812
:100860004022090C531A0A4A51688B4201D10020D8
:100870007047084B595C01705068401C506040281C
:1008800001D1002050600120704700004000094065
:10089000000000204C00002070B50C4C0D46226872
:1008A000012AFCD00A498D6008600320FFF716FE7C
:1008B00001210320FFF762FE012020600246402153
:1008C0000448FFF763FF284670BD000000000020C9
:1008D000140000200000044010B50548FFF7BEFFDB
:1008E000002803D001210248FFF7D6FF10BD000009
:1008F0008C0000201CB50022009201216B46019261
:10090000195418784904C007C00B88435978C9079F
:10091000890B08430121890488439978C907490B49
:1009200008430121C9048843D9780123C907090B69
:10093000084301218903FFF7E1FC1CBD10B5024A01
:10094000024900F021F810BDA709000010000020A6
:1009500030B47446641E2578641CAB4200D21D4638
:10096000635D5B00E31830BC184702E008C8121F43
:1009700008C1002AFAD170477047002001E001C188
:10098000121F002AFBD17047F8B516460F460446E1
:10099000002503E03946B047641C6D1C2078002810
:1009A000F8D12846F8BD10B5FFF724FE10BD0000B1
:1009B0000020FFF7EDFCFFF7A7FDFFF7F9FE472149
:1009C0000548FFF769FFFFF787FFFFF731FD03A039
:1009D000FFF7B4FFF7E70000E409000031323334D9
:1009E0003536000048656C6C6F2C20746869732084
:1009F00069732055534152542054782F5278205017
:100A0000444D41206578616D706C652E20506C6599
:100A100061736520656E74657220636861726163DD
:100A2000746572732E2E2E2E2E0D0A000202020104
:100A300001010103030101010C01020000400080DB
:100A4000020000100200040000000B4000200B40D8
:100A500000400B4000600B40000000000000000060
:100A60000000044000001000060000002000060006
:100A7000900A000000000020140000006A09000035
:100A8000A40A000014000020BC0200007A09000043
:100A90000000000000000000000000000000000056
:040AA0000000000052
:04000005000000C136
:00000001FF
