:020000040000FA
:1000000008020020C1000000DF020000DD02000045
:10001000FFFFFFFFFFFFFFFFFFFFFFFFFFFFFFFFF0
:10002000FFFFFFFFFFFFFFFFFFFFFFFFE3020000F7
:10003000FFFFFFFFFFFFFFFFE1020000E5020000FE
:1000400003010000030100000301000003010000A0
:100050000301000003010000030100000301000090
:1000600003010000FFFFFFFF030100000301000088
:10007000030100000301000003010000FFFFFFFF78
:10008000FFFFFFFF03010000030100000301000068
:100090000301000003010000030100000301000050
:1000A0000301000003010000030100000301000040
:1000B0000301000003010000030100000301000030
:1000C0001048804710488047104800471048016991
:1000D000002910D1416900290DD1816900290AD177
:1000E000C169002907D1BFF34F8F0A490A48C86088
:1000F000BFF34F8FFEE77047FEE7FEE7FEE7FEE740
:10010000FEE7FEE7CD000000E90200001D0100004F
:100110000003084000ED00E00400FA0503488546AE
:1001200000F01CF800480047B90400000802002055
:1001300030B50B46014600202022012409E00D467F
:10014000D5409D4205D31D469540491B2546954007
:1001500040191546521E002DF1DC30BD064C01251C
:10016000064E05E0E36807CC2B430C3C984710345F
:10017000B442F7D3FFF7D6FFA4050000C405000082
:10018000F0B596460A461349C000461800230025DC
:10019000FF2098402C46104216D0002001219940A3
:1001A0008C461146C1406746394206D087000F2170
:1001B000B9400D437146B9400C43401C0828F0D3A8
:1001C0003068A843204330600833361D082BDEDD3D
:1001D000F0BD00002020024070B5184D0446686B49
:1001E0004607760F00F02EF815492060330000F026
:1001F00046F9081405070714140E1114606000E096
:100200006160296A6068052909D3400908E0012076
:10021000C003F3E77D200002F0E70020EEE7C840CE
:10022000A060A96A4903490F072902D0C840E060CD
:1002300070BD0321FFF77CFFF9E700000080084054
:1002400000127A000C490868C869C20F4868400A61
:10025000C007C00F0ED00948002A0BD18869C00D15
:100260000007000F00D110208969044A4902890F54
:100270005043C840704700000080084000127A00D8
:100280001FB541090A4A89008A1800212E2800D189
:100290000221C006C00E1268032383401A40C240E8
:1002A00054186846FFF798FF029804B0E04010BD6C
:1002B00038800840F0B5084F7C6AFD6A3E6B844385
:1002C0008D439643002B02D004430D4316437C62BA
:1002D000FD623E63F0BD000000800840FEE770470D
:1002E0007047704770470000F0B534491020C8606F
:1002F0003349012008603348016B402421430163E6
:1003000031498A68272AFCD1416A0322920291432B
:10031000416241680122D202114341608168C908EB
:10032000C907FBD04168C908C900C91C4160416BBD
:100330004907490F0329FAD1244B1968C908C90094
:10034000491C19600025056241685E15B143416092
:1003500001689F153943016041681A1511434160D6
:1003600081688908C907FBD0016BA143016301685B
:10037000B94301600321090681614168314341604D
:1003800081684908C907FBD01968C908C900891CD8
:10039000196005624168C908C900491C4160416B88
:1003A0004907490F0129FAD118681021084318603C
:1003B0001868090208431860F0BD00000081084079
:1003C000008308400080084000A106400002084069
:1003D0000069084000D001207047000070B5044655
:1003E0000D46C8888988626808432989184B1A40D5
:1003F00011430843698908436060012080078442F3
:1004000006D11820FFF73CFF2968FFF791FE6062D4
:100410001048844206D11A20FFF732FF2968FFF7FF
:1004200087FE60620C48844206D11C20FFF728FF3B
:100430002968FFF77DFE60620848844206D11E20CD
:10044000FFF71EFF2968FFF773FE606270BD0000B2
:10045000FCE0FFFF000004400010004000100440DA
:10046000006880B270470160704710238B4041687C
:10047000002A01D0194300E099434160704730B42D
:100480007446641E2578641CAB4200D21D46635D31
:100490005B00E31830BC184702E008C8121F08C10F
:1004A000002AFAD170477047002001E001C1121FF5
:1004B000002AFBD1704700000EB5002721213A46E3
:1004C000490201231046FFF7F5FE06221021002005
:1004D000FFF756FE062220210020FFF751FEE12003
:1004E0004002FF260090013668468680C78007815B
:1004F0001D4D478169462846FFF770FF0122002104
:100500002846FFF7B2FF012211462846FFF7ADFF4C
:10051000164C2770164F0DE02078395C2846FFF7FF
:10052000A2FF31462846FFF753FF0028F9D0207874
:10053000401C207020782E28EED30C4C641C202107
:100540002846FFF745FF0028F9D02846FFF788FF27
:10055000C1B221702846FFF786FF31462846FFF7D3
:1005600037FF0028F9D0EAE700000440000000202F
:100570007405000048656C6C6F2C207468697320EA
:10058000697320555341525420506F6C6C696E67EB
:100590002054782F5278206578616D706C652E0D2F
:1005A0000A000000C4050000000000200400000054
:1005B00098040000C80500000400002004020000A8
:0805C000A8040000000D0A0070
:04000005000000C136
:00000001FF
